{
  "_format": "hh-sol-artifact-1",
  "contractName": "GogoToken",
  "sourceName": "contracts/GogoToken.sol",
  "abi": [
    {
      "inputs": [],
      "stateMutability": "nonpayable",
      "type": "constructor"
    },
    {
      "anonymous": false,
      "inputs": [
        {
          "indexed": true,
          "internalType": "address",
          "name": "owner",
          "type": "address"
        },
        {
          "indexed": true,
          "internalType": "address",
          "name": "spender",
          "type": "address"
        },
        {
          "indexed": false,
          "internalType": "uint256",
          "name": "value",
          "type": "uint256"
        }
      ],
      "name": "Approval",
      "type": "event"
    },
    {
      "anonymous": false,
      "inputs": [
        {
          "indexed": true,
          "internalType": "address",
          "name": "from",
          "type": "address"
        },
        {
          "indexed": true,
          "internalType": "address",
          "name": "to",
          "type": "address"
        },
        {
          "indexed": false,
          "internalType": "uint256",
          "name": "value",
          "type": "uint256"
        }
      ],
      "name": "Transfer",
      "type": "event"
    },
    {
      "inputs": [
        {
          "internalType": "address",
          "name": "owner",
          "type": "address"
        },
        {
          "internalType": "address",
          "name": "spender",
          "type": "address"
        }
      ],
      "name": "allowance",
      "outputs": [
        {
          "internalType": "uint256",
          "name": "",
          "type": "uint256"
        }
      ],
      "stateMutability": "view",
      "type": "function"
    },
    {
      "inputs": [
        {
          "internalType": "address",
          "name": "spender",
          "type": "address"
        },
        {
          "internalType": "uint256",
          "name": "amount",
          "type": "uint256"
        }
      ],
      "name": "approve",
      "outputs": [
        {
          "internalType": "bool",
          "name": "",
          "type": "bool"
        }
      ],
      "stateMutability": "nonpayable",
      "type": "function"
    },
    {
      "inputs": [
        {
          "internalType": "address",
          "name": "account",
          "type": "address"
        }
      ],
      "name": "balanceOf",
      "outputs": [
        {
          "internalType": "uint256",
          "name": "",
          "type": "uint256"
        }
      ],
      "stateMutability": "view",
      "type": "function"
    },
    {
      "inputs": [],
      "name": "decimals",
      "outputs": [
        {
          "internalType": "uint8",
          "name": "",
          "type": "uint8"
        }
      ],
      "stateMutability": "view",
      "type": "function"
    },
    {
      "inputs": [
        {
          "internalType": "address",
          "name": "spender",
          "type": "address"
        },
        {
          "internalType": "uint256",
          "name": "subtractedValue",
          "type": "uint256"
        }
      ],
      "name": "decreaseAllowance",
      "outputs": [
        {
          "internalType": "bool",
          "name": "",
          "type": "bool"
        }
      ],
      "stateMutability": "nonpayable",
      "type": "function"
    },
    {
      "inputs": [
        {
          "internalType": "address",
          "name": "spender",
          "type": "address"
        },
        {
          "internalType": "uint256",
          "name": "addedValue",
          "type": "uint256"
        }
      ],
      "name": "increaseAllowance",
      "outputs": [
        {
          "internalType": "bool",
          "name": "",
          "type": "bool"
        }
      ],
      "stateMutability": "nonpayable",
      "type": "function"
    },
    {
      "inputs": [],
      "name": "name",
      "outputs": [
        {
          "internalType": "string",
          "name": "",
          "type": "string"
        }
      ],
      "stateMutability": "view",
      "type": "function"
    },
    {
      "inputs": [],
      "name": "owner",
      "outputs": [
        {
          "internalType": "address",
          "name": "",
          "type": "address"
        }
      ],
      "stateMutability": "view",
      "type": "function"
    },
    {
      "inputs": [],
      "name": "symbol",
      "outputs": [
        {
          "internalType": "string",
          "name": "",
          "type": "string"
        }
      ],
      "stateMutability": "view",
      "type": "function"
    },
    {
      "inputs": [],
      "name": "total",
      "outputs": [
        {
          "internalType": "uint256",
          "name": "",
          "type": "uint256"
        }
      ],
      "stateMutability": "view",
      "type": "function"
    },
    {
      "inputs": [],
      "name": "totalSupply",
      "outputs": [
        {
          "internalType": "uint256",
          "name": "",
          "type": "uint256"
        }
      ],
      "stateMutability": "view",
      "type": "function"
    },
    {
      "inputs": [
        {
          "internalType": "address",
          "name": "to",
          "type": "address"
        },
        {
          "internalType": "uint256",
          "name": "amount",
          "type": "uint256"
        }
      ],
      "name": "transfer",
      "outputs": [
        {
          "internalType": "bool",
          "name": "",
          "type": "bool"
        }
      ],
      "stateMutability": "nonpayable",
      "type": "function"
    },
    {
      "inputs": [
        {
          "internalType": "address",
          "name": "from",
          "type": "address"
        },
        {
          "internalType": "address",
          "name": "to",
          "type": "address"
        },
        {
          "internalType": "uint256",
          "name": "amount",
          "type": "uint256"
        }
      ],
      "name": "transferFrom",
      "outputs": [
        {
          "internalType": "bool",
          "name": "",
          "type": "bool"
        }
      ],
      "stateMutability": "nonpayable",
      "type": "function"
    }
  ],
  "bytecode": "0x6080604052620186a06005553480156200001857600080fd5b506040518060400160405280600981526020017f476f676f546f6b656e00000000000000000000000000000000000000000000008152506040518060400160405280600381526020017f47544b000000000000000000000000000000000000000000000000000000000081525081600390805190602001906200009d929190620002ca565b508060049080519060200190620000b6929190620002ca565b505050620000f733620000ce6200013e60201b60201c565b600a620000dc9190620004ba565b600554620000eb9190620005f7565b6200014760201b60201c565b33600660006101000a81548173ffffffffffffffffffffffffffffffffffffffff021916908373ffffffffffffffffffffffffffffffffffffffff16021790555062000739565b60006012905090565b600073ffffffffffffffffffffffffffffffffffffffff168273ffffffffffffffffffffffffffffffffffffffff161415620001ba576040517f08c379a0000000000000000000000000000000000000000000000000000000008152600401620001b190620003b2565b60405180910390fd5b620001ce60008383620002c060201b60201c565b8060026000828254620001e2919062000402565b92505081905550806000808473ffffffffffffffffffffffffffffffffffffffff1673ffffffffffffffffffffffffffffffffffffffff168152602001908152602001600020600082825462000239919062000402565b925050819055508173ffffffffffffffffffffffffffffffffffffffff16600073ffffffffffffffffffffffffffffffffffffffff167fddf252ad1be2c89b69c2b068fc378daa952ba7f163c4a11628f55a4df523b3ef83604051620002a09190620003d4565b60405180910390a3620002bc60008383620002c560201b60201c565b5050565b505050565b505050565b828054620002d8906200066f565b90600052602060002090601f016020900481019282620002fc576000855562000348565b82601f106200031757805160ff191683800117855562000348565b8280016001018555821562000348579182015b82811115620003475782518255916020019190600101906200032a565b5b5090506200035791906200035b565b5090565b5b80821115620003765760008160009055506001016200035c565b5090565b600062000389601f83620003f1565b9150620003968262000710565b602082019050919050565b620003ac8162000658565b82525050565b60006020820190508181036000830152620003cd816200037a565b9050919050565b6000602082019050620003eb6000830184620003a1565b92915050565b600082825260208201905092915050565b60006200040f8262000658565b91506200041c8362000658565b9250827fffffffffffffffffffffffffffffffffffffffffffffffffffffffffffffffff03821115620004545762000453620006a5565b5b828201905092915050565b6000808291508390505b6001851115620004b157808604811115620004895762000488620006a5565b5b6001851615620004995780820291505b8081029050620004a98562000703565b945062000469565b94509492505050565b6000620004c78262000658565b9150620004d48362000662565b9250620005037fffffffffffffffffffffffffffffffffffffffffffffffffffffffffffffffff84846200050b565b905092915050565b6000826200051d5760019050620005f0565b816200052d5760009050620005f0565b8160018114620005465760028114620005515762000587565b6001915050620005f0565b60ff841115620005665762000565620006a5565b5b8360020a91508482111562000580576200057f620006a5565b5b50620005f0565b5060208310610133831016604e8410600b8410161715620005c15782820a905083811115620005bb57620005ba620006a5565b5b620005f0565b620005d084848460016200045f565b92509050818404811115620005ea57620005e9620006a5565b5b81810290505b9392505050565b6000620006048262000658565b9150620006118362000658565b9250817fffffffffffffffffffffffffffffffffffffffffffffffffffffffffffffffff04831182151516156200064d576200064c620006a5565b5b828202905092915050565b6000819050919050565b600060ff82169050919050565b600060028204905060018216806200068857607f821691505b602082108114156200069f576200069e620006d4565b5b50919050565b7f4e487b7100000000000000000000000000000000000000000000000000000000600052601160045260246000fd5b7f4e487b7100000000000000000000000000000000000000000000000000000000600052602260045260246000fd5b60008160011c9050919050565b7f45524332303a206d696e7420746f20746865207a65726f206164647265737300600082015250565b6113f180620007496000396000f3fe608060405234801561001057600080fd5b50600436106100cf5760003560e01c8063395093511161008c57806395d89b411161006657806395d89b411461022a578063a457c2d714610248578063a9059cbb14610278578063dd62ed3e146102a8576100cf565b806339509351146101ac57806370a08231146101dc5780638da5cb5b1461020c576100cf565b806306fdde03146100d4578063095ea7b3146100f257806318160ddd1461012257806323b872dd146101405780632ddbd13a14610170578063313ce5671461018e575b600080fd5b6100dc6102d8565b6040516100e99190610eb7565b60405180910390f35b61010c60048036038101906101079190610cdb565b61036a565b6040516101199190610e9c565b60405180910390f35b61012a61038d565b6040516101379190610fb9565b60405180910390f35b61015a60048036038101906101559190610c8c565b610397565b6040516101679190610e9c565b60405180910390f35b6101786103c6565b6040516101859190610fb9565b60405180910390f35b6101966103cc565b6040516101a39190610fd4565b60405180910390f35b6101c660048036038101906101c19190610cdb565b6103d5565b6040516101d39190610e9c565b60405180910390f35b6101f660048036038101906101f19190610c27565b61047f565b6040516102039190610fb9565b60405180910390f35b6102146104c7565b6040516102219190610e81565b60405180910390f35b6102326104ed565b60405161023f9190610eb7565b60405180910390f35b610262600480360381019061025d9190610cdb565b61057f565b60405161026f9190610e9c565b60405180910390f35b610292600480360381019061028d9190610cdb565b610669565b60405161029f9190610e9c565b60405180910390f35b6102c260048036038101906102bd9190610c50565b61068c565b6040516102cf9190610fb9565b60405180910390f35b6060600380546102e7906110e9565b80601f0160208091040260200160405190810160405280929190818152602001828054610313906110e9565b80156103605780601f1061033557610100808354040283529160200191610360565b820191906000526020600020905b81548152906001019060200180831161034357829003601f168201915b5050505050905090565b600080610375610713565b905061038281858561071b565b600191505092915050565b6000600254905090565b6000806103a2610713565b90506103af8582856108e6565b6103ba858585610972565b60019150509392505050565b60055481565b60006012905090565b6000806103e0610713565b9050610474818585600160008673ffffffffffffffffffffffffffffffffffffffff1673ffffffffffffffffffffffffffffffffffffffff16815260200190815260200160002060008973ffffffffffffffffffffffffffffffffffffffff1673ffffffffffffffffffffffffffffffffffffffff1681526020019081526020016000205461046f919061100b565b61071b565b600191505092915050565b60008060008373ffffffffffffffffffffffffffffffffffffffff1673ffffffffffffffffffffffffffffffffffffffff168152602001908152602001600020549050919050565b600660009054906101000a900473ffffffffffffffffffffffffffffffffffffffff1681565b6060600480546104fc906110e9565b80601f0160208091040260200160405190810160405280929190818152602001828054610528906110e9565b80156105755780601f1061054a57610100808354040283529160200191610575565b820191906000526020600020905b81548152906001019060200180831161055857829003601f168201915b5050505050905090565b60008061058a610713565b90506000600160008373ffffffffffffffffffffffffffffffffffffffff1673ffffffffffffffffffffffffffffffffffffffff16815260200190815260200160002060008673ffffffffffffffffffffffffffffffffffffffff1673ffffffffffffffffffffffffffffffffffffffff16815260200190815260200160002054905083811015610650576040517f08c379a000000000000000000000000000000000000000000000000000000000815260040161064790610f99565b60405180910390fd5b61065d828686840361071b565b60019250505092915050565b600080610674610713565b9050610681818585610972565b600191505092915050565b6000600160008473ffffffffffffffffffffffffffffffffffffffff1673ffffffffffffffffffffffffffffffffffffffff16815260200190815260200160002060008373ffffffffffffffffffffffffffffffffffffffff1673ffffffffffffffffffffffffffffffffffffffff16815260200190815260200160002054905092915050565b600033905090565b600073ffffffffffffffffffffffffffffffffffffffff168373ffffffffffffffffffffffffffffffffffffffff16141561078b576040517f08c379a000000000000000000000000000000000000000000000000000000000815260040161078290610f79565b60405180910390fd5b600073ffffffffffffffffffffffffffffffffffffffff168273ffffffffffffffffffffffffffffffffffffffff1614156107fb576040517f08c379a00000000000000000000000000000000000000000000000000000000081526004016107f290610ef9565b60405180910390fd5b80600160008573ffffffffffffffffffffffffffffffffffffffff1673ffffffffffffffffffffffffffffffffffffffff16815260200190815260200160002060008473ffffffffffffffffffffffffffffffffffffffff1673ffffffffffffffffffffffffffffffffffffffff168152602001908152602001600020819055508173ffffffffffffffffffffffffffffffffffffffff168373ffffffffffffffffffffffffffffffffffffffff167f8c5be1e5ebec7d5bd14f71427d1e84f3dd0314c0f7b2291e5b200ac8c7c3b925836040516108d99190610fb9565b60405180910390a3505050565b60006108f2848461068c565b90507fffffffffffffffffffffffffffffffffffffffffffffffffffffffffffffffff811461096c578181101561095e576040517f08c379a000000000000000000000000000000000000000000000000000000000815260040161095590610f19565b60405180910390fd5b61096b848484840361071b565b5b50505050565b600073ffffffffffffffffffffffffffffffffffffffff168373ffffffffffffffffffffffffffffffffffffffff1614156109e2576040517f08c379a00000000000000000000000000000000000000000000000000000000081526004016109d990610f59565b60405180910390fd5b600073ffffffffffffffffffffffffffffffffffffffff168273ffffffffffffffffffffffffffffffffffffffff161415610a52576040517f08c379a0000000000000000000000000000000000000000000000000000000008152600401610a4990610ed9565b60405180910390fd5b610a5d838383610bf3565b60008060008573ffffffffffffffffffffffffffffffffffffffff1673ffffffffffffffffffffffffffffffffffffffff16815260200190815260200160002054905081811015610ae3576040517f08c379a0000000000000000000000000000000000000000000000000000000008152600401610ada90610f39565b60405180910390fd5b8181036000808673ffffffffffffffffffffffffffffffffffffffff1673ffffffffffffffffffffffffffffffffffffffff16815260200190815260200160002081905550816000808573ffffffffffffffffffffffffffffffffffffffff1673ffffffffffffffffffffffffffffffffffffffff1681526020019081526020016000206000828254610b76919061100b565b925050819055508273ffffffffffffffffffffffffffffffffffffffff168473ffffffffffffffffffffffffffffffffffffffff167fddf252ad1be2c89b69c2b068fc378daa952ba7f163c4a11628f55a4df523b3ef84604051610bda9190610fb9565b60405180910390a3610bed848484610bf8565b50505050565b505050565b505050565b600081359050610c0c8161138d565b92915050565b600081359050610c21816113a4565b92915050565b600060208284031215610c3957600080fd5b6000610c4784828501610bfd565b91505092915050565b60008060408385031215610c6357600080fd5b6000610c7185828601610bfd565b9250506020610c8285828601610bfd565b9150509250929050565b600080600060608486031215610ca157600080fd5b6000610caf86828701610bfd565b9350506020610cc086828701610bfd565b9250506040610cd186828701610c12565b9150509250925092565b60008060408385031215610cee57600080fd5b6000610cfc85828601610bfd565b9250506020610d0d85828601610c12565b9150509250929050565b610d2081611061565b82525050565b610d2f81611073565b82525050565b6000610d4082610fef565b610d4a8185610ffa565b9350610d5a8185602086016110b6565b610d6381611179565b840191505092915050565b6000610d7b602383610ffa565b9150610d868261118a565b604082019050919050565b6000610d9e602283610ffa565b9150610da9826111d9565b604082019050919050565b6000610dc1601d83610ffa565b9150610dcc82611228565b602082019050919050565b6000610de4602683610ffa565b9150610def82611251565b604082019050919050565b6000610e07602583610ffa565b9150610e12826112a0565b604082019050919050565b6000610e2a602483610ffa565b9150610e35826112ef565b604082019050919050565b6000610e4d602583610ffa565b9150610e588261133e565b604082019050919050565b610e6c8161109f565b82525050565b610e7b816110a9565b82525050565b6000602082019050610e966000830184610d17565b92915050565b6000602082019050610eb16000830184610d26565b92915050565b60006020820190508181036000830152610ed18184610d35565b905092915050565b60006020820190508181036000830152610ef281610d6e565b9050919050565b60006020820190508181036000830152610f1281610d91565b9050919050565b60006020820190508181036000830152610f3281610db4565b9050919050565b60006020820190508181036000830152610f5281610dd7565b9050919050565b60006020820190508181036000830152610f7281610dfa565b9050919050565b60006020820190508181036000830152610f9281610e1d565b9050919050565b60006020820190508181036000830152610fb281610e40565b9050919050565b6000602082019050610fce6000830184610e63565b92915050565b6000602082019050610fe96000830184610e72565b92915050565b600081519050919050565b600082825260208201905092915050565b60006110168261109f565b91506110218361109f565b9250827fffffffffffffffffffffffffffffffffffffffffffffffffffffffffffffffff038211156110565761105561111b565b5b828201905092915050565b600061106c8261107f565b9050919050565b60008115159050919050565b600073ffffffffffffffffffffffffffffffffffffffff82169050919050565b6000819050919050565b600060ff82169050919050565b60005b838110156110d45780820151818401526020810190506110b9565b838111156110e3576000848401525b50505050565b6000600282049050600182168061110157607f821691505b602082108114156111155761111461114a565b5b50919050565b7f4e487b7100000000000000000000000000000000000000000000000000000000600052601160045260246000fd5b7f4e487b7100000000000000000000000000000000000000000000000000000000600052602260045260246000fd5b6000601f19601f8301169050919050565b7f45524332303a207472616e7366657220746f20746865207a65726f206164647260008201527f6573730000000000000000000000000000000000000000000000000000000000602082015250565b7f45524332303a20617070726f766520746f20746865207a65726f20616464726560008201527f7373000000000000000000000000000000000000000000000000000000000000602082015250565b7f45524332303a20696e73756666696369656e7420616c6c6f77616e6365000000600082015250565b7f45524332303a207472616e7366657220616d6f756e742065786365656473206260008201527f616c616e63650000000000000000000000000000000000000000000000000000602082015250565b7f45524332303a207472616e736665722066726f6d20746865207a65726f20616460008201527f6472657373000000000000000000000000000000000000000000000000000000602082015250565b7f45524332303a20617070726f76652066726f6d20746865207a65726f2061646460008201527f7265737300000000000000000000000000000000000000000000000000000000602082015250565b7f45524332303a2064656372656173656420616c6c6f77616e63652062656c6f7760008201527f207a65726f000000000000000000000000000000000000000000000000000000602082015250565b61139681611061565b81146113a157600080fd5b50565b6113ad8161109f565b81146113b857600080fd5b5056fea26469706673582212209be5a9e2bd7877e3894a89ae58ed7f2cbe88c52da56b49fb30151cf2f1b91b9a64736f6c63430008030033",
  "linkReferences": {},
  "deployedLinkReferences": {}
}