{
  "_format": "hh-sol-artifact-1",
  "contractName": "Lottery",
  "sourceName": "contracts/Lottery.sol",
  "abi": [
    {
      "inputs": [],
      "name": "enter",
      "outputs": [],
      "stateMutability": "payable",
      "type": "function"
    },
    {
      "inputs": [],
      "name": "lottery",
      "outputs": [],
      "stateMutability": "nonpayable",
      "type": "function"
    },
    {
      "inputs": [],
      "name": "manager",
      "outputs": [
        {
          "internalType": "address",
          "name": "",
          "type": "address"
        }
      ],
      "stateMutability": "view",
      "type": "function"
    },
    {
      "inputs": [],
      "name": "pickWinner",
      "outputs": [],
      "stateMutability": "nonpayable",
      "type": "function"
    },
    {
      "inputs": [
        {
          "internalType": "uint256",
          "name": "",
          "type": "uint256"
        }
      ],
      "name": "players",
      "outputs": [
        {
          "internalType": "address",
          "name": "",
          "type": "address"
        }
      ],
      "stateMutability": "view",
      "type": "function"
    }
  ],
  "bytecode": "0x608060405234801561001057600080fd5b50610743806100206000396000f3fe60806040526004361061004a5760003560e01c8063481c6a751461004f5780635d495aea1461007a578063ba13a57214610091578063e97dcb62146100a8578063f71d96cb146100b2575b600080fd5b34801561005b57600080fd5b506100646100ef565b6040516100719190610577565b60405180910390f35b34801561008657600080fd5b5061008f610113565b005b34801561009d57600080fd5b506100a66102bb565b005b6100b06102fd565b005b3480156100be57600080fd5b506100d960048036038101906100d491906104a4565b610375565b6040516100e69190610577565b60405180910390f35b60008054906101000a900473ffffffffffffffffffffffffffffffffffffffff1681565b60008054906101000a900473ffffffffffffffffffffffffffffffffffffffff1673ffffffffffffffffffffffffffffffffffffffff163373ffffffffffffffffffffffffffffffffffffffff161461016b57600080fd5b600060018054905061017b6103b4565b6101859190610676565b9050600181815481106101c1577f4e487b7100000000000000000000000000000000000000000000000000000000600052603260045260246000fd5b9060005260206000200160009054906101000a900473ffffffffffffffffffffffffffffffffffffffff1673ffffffffffffffffffffffffffffffffffffffff166108fc479081150290604051600060405180830381858888f19350505050158015610231573d6000803e3d6000fd5b50600067ffffffffffffffff811115610273577f4e487b7100000000000000000000000000000000000000000000000000000000600052604160045260246000fd5b6040519080825280602002602001820160405280156102a15781602001602082028036833780820191505090505b50600190805190602001906102b79291906103e8565b5050565b336000806101000a81548173ffffffffffffffffffffffffffffffffffffffff021916908373ffffffffffffffffffffffffffffffffffffffff160217905550565b662386f26fc10000341161031057600080fd5b6001339080600181540180825580915050600190039060005260206000200160009091909190916101000a81548173ffffffffffffffffffffffffffffffffffffffff021916908373ffffffffffffffffffffffffffffffffffffffff160217905550565b6001818154811061038557600080fd5b906000526020600020016000915054906101000a900473ffffffffffffffffffffffffffffffffffffffff1681565b60004260016040516020016103ca929190610592565b6040516020818303038152906040528051906020012060001c905090565b828054828255906000526020600020908101928215610461579160200282015b828111156104605782518260006101000a81548173ffffffffffffffffffffffffffffffffffffffff021916908373ffffffffffffffffffffffffffffffffffffffff16021790555091602001919060010190610408565b5b50905061046e9190610472565b5090565b5b8082111561048b576000816000905550600101610473565b5090565b60008135905061049e816106f6565b92915050565b6000602082840312156104b657600080fd5b60006104c48482850161048f565b91505092915050565b60006104d983836104e5565b60208301905092915050565b6104ee81610620565b82525050565b6104fd81610620565b82525050565b600061050e826105d7565b61051881856105ef565b9350610523836105c2565b8060005b8381101561055b57610538826106d6565b61054288826104cd565b975061054d836105e2565b925050600181019050610527565b5085935050505092915050565b61057181610652565b82525050565b600060208201905061058c60008301846104f4565b92915050565b60006040820190506105a76000830185610568565b81810360208301526105b98184610503565b90509392505050565b60008190508160005260206000209050919050565b600081549050919050565b6000600182019050919050565b600082825260208201905092915050565b600073ffffffffffffffffffffffffffffffffffffffff82169050919050565b600061062b82610632565b9050919050565b600073ffffffffffffffffffffffffffffffffffffffff82169050919050565b6000819050919050565b600061066f61066a836106e9565b610600565b9050919050565b600061068182610652565b915061068c83610652565b92508261069c5761069b6106a7565b5b828206905092915050565b7f4e487b7100000000000000000000000000000000000000000000000000000000600052601260045260246000fd5b60006106e2825461065c565b9050919050565b60008160001c9050919050565b6106ff81610652565b811461070a57600080fd5b5056fea264697066735822122050e4171db997bda2c236a4e57e82a20e7a37cab21fe59bcb9818c4e94ee1b78c64736f6c63430008030033",
  "linkReferences": {},
  "deployedLinkReferences": {}
}