{
  "_format": "hh-sol-artifact-1",
  "contractName": "TicketsFactory",
  "sourceName": "contracts/TicketFactory.sol",
  "abi": [
    {
      "anonymous": false,
      "inputs": [
        {
          "indexed": false,
          "internalType": "address",
          "name": "ntfAddress",
          "type": "address"
        },
        {
          "indexed": false,
          "internalType": "address",
          "name": "marketplaceAddress",
          "type": "address"
        }
      ],
      "name": "Created",
      "type": "event"
    },
    {
      "anonymous": false,
      "inputs": [
        {
          "indexed": true,
          "internalType": "address",
          "name": "previousOwner",
          "type": "address"
        },
        {
          "indexed": true,
          "internalType": "address",
          "name": "newOwner",
          "type": "address"
        }
      ],
      "name": "OwnershipTransferred",
      "type": "event"
    },
    {
      "inputs": [
        {
          "internalType": "contract GogoToken",
          "name": "token",
          "type": "address"
        },
        {
          "internalType": "string",
          "name": "festName",
          "type": "string"
        },
        {
          "internalType": "string",
          "name": "festSymbol",
          "type": "string"
        },
        {
          "internalType": "uint256",
          "name": "ticketPrice",
          "type": "uint256"
        },
        {
          "internalType": "uint256",
          "name": "totalSupply",
          "type": "uint256"
        }
      ],
      "name": "createNewFest",
      "outputs": [
        {
          "internalType": "address",
          "name": "",
          "type": "address"
        }
      ],
      "stateMutability": "nonpayable",
      "type": "function"
    },
    {
      "inputs": [],
      "name": "getActiveFests",
      "outputs": [
        {
          "internalType": "address[]",
          "name": "",
          "type": "address[]"
        }
      ],
      "stateMutability": "view",
      "type": "function"
    },
    {
      "inputs": [
        {
          "internalType": "address",
          "name": "festAddress",
          "type": "address"
        }
      ],
      "name": "getFestDetails",
      "outputs": [
        {
          "internalType": "string",
          "name": "",
          "type": "string"
        },
        {
          "internalType": "string",
          "name": "",
          "type": "string"
        },
        {
          "internalType": "uint256",
          "name": "",
          "type": "uint256"
        },
        {
          "internalType": "uint256",
          "name": "",
          "type": "uint256"
        },
        {
          "internalType": "address",
          "name": "",
          "type": "address"
        }
      ],
      "stateMutability": "view",
      "type": "function"
    },
    {
      "inputs": [],
      "name": "owner",
      "outputs": [
        {
          "internalType": "address",
          "name": "",
          "type": "address"
        }
      ],
      "stateMutability": "view",
      "type": "function"
    },
    {
      "inputs": [],
      "name": "renounceOwnership",
      "outputs": [],
      "stateMutability": "nonpayable",
      "type": "function"
    },
    {
      "inputs": [
        {
          "internalType": "address",
          "name": "newOwner",
          "type": "address"
        }
      ],
      "name": "transferOwnership",
      "outputs": [],
      "stateMutability": "nonpayable",
      "type": "function"
    }
  ],
  "bytecode": "0x608060405234801561001057600080fd5b5061002d61002261003260201b60201c565b61003a60201b60201c565b6100fe565b600033905090565b60008060009054906101000a900473ffffffffffffffffffffffffffffffffffffffff169050816000806101000a81548173ffffffffffffffffffffffffffffffffffffffff021916908373ffffffffffffffffffffffffffffffffffffffff1602179055508173ffffffffffffffffffffffffffffffffffffffff168173ffffffffffffffffffffffffffffffffffffffff167f8be0079c531659141344cd1fd0a4f28419497f9722a3daafe3b4186f6b6457e060405160405180910390a35050565b618ec7806200010e6000396000f3fe60806040523480156200001157600080fd5b50600436106200006a5760003560e01c8063118648ea146200006f578063294fbbf11462000091578063715018a614620000cb5780638da5cb5b14620000d75780638f4e628914620000f9578063f2fde38b146200012f575b600080fd5b620000796200014f565b60405162000088919062000e01565b60405180910390f35b620000af6004803603810190620000a9919062000b6f565b620001df565b604051620000c295949392919062000e52565b60405180910390f35b620000d56200048f565b005b620000e162000520565b604051620000f0919062000db7565b60405180910390f35b62000117600480360381019062000111919062000b9b565b62000549565b60405162000126919062000db7565b60405180910390f35b6200014d600480360381019062000147919062000b6f565b6200081c565b005b60606001805480602002602001604051908101604052809291908181526020018280548015620001d557602002820191906000526020600020905b8160009054906101000a900473ffffffffffffffffffffffffffffffffffffffff1673ffffffffffffffffffffffffffffffffffffffff16815260200190600101908083116200018a575b5050505050905090565b6060806000806000600260008773ffffffffffffffffffffffffffffffffffffffff1673ffffffffffffffffffffffffffffffffffffffff168152602001908152602001600020600001600260008873ffffffffffffffffffffffffffffffffffffffff1673ffffffffffffffffffffffffffffffffffffffff168152602001908152602001600020600101600260008973ffffffffffffffffffffffffffffffffffffffff1673ffffffffffffffffffffffffffffffffffffffff16815260200190815260200160002060020154600260008a73ffffffffffffffffffffffffffffffffffffffff1673ffffffffffffffffffffffffffffffffffffffff16815260200190815260200160002060030154600260008b73ffffffffffffffffffffffffffffffffffffffff1673ffffffffffffffffffffffffffffffffffffffff16815260200190815260200160002060040160009054906101000a900473ffffffffffffffffffffffffffffffffffffffff1684805462000362906200109c565b80601f016020809104026020016040519081016040528092919081815260200182805462000390906200109c565b8015620003e15780601f10620003b557610100808354040283529160200191620003e1565b820191906000526020600020905b815481529060010190602001808311620003c357829003601f168201915b50505050509450838054620003f6906200109c565b80601f016020809104026020016040519081016040528092919081815260200182805462000424906200109c565b8015620004755780601f10620004495761010080835404028352916020019162000475565b820191906000526020600020905b8154815290600101906020018083116200045757829003601f168201915b505050505093509450945094509450945091939590929450565b6200049962000920565b73ffffffffffffffffffffffffffffffffffffffff16620004b962000520565b73ffffffffffffffffffffffffffffffffffffffff161462000512576040517f08c379a0000000000000000000000000000000000000000000000000000000008152600401620005099062000edf565b60405180910390fd5b6200051e600062000928565b565b60008060009054906101000a900473ffffffffffffffffffffffffffffffffffffffff16905090565b60006200055562000920565b73ffffffffffffffffffffffffffffffffffffffff166200057562000520565b73ffffffffffffffffffffffffffffffffffffffff1614620005ce576040517f08c379a0000000000000000000000000000000000000000000000000000000008152600401620005c59062000edf565b60405180910390fd5b60008585858533604051620005e390620009ec565b620005f395949392919062000e52565b604051809103906000f08015801562000610573d6000803e3d6000fd5b509050600087826040516200062590620009fa565b6200063292919062000e25565b604051809103906000f0801580156200064f573d6000803e3d6000fd5b50905060008290506001819080600181540180825580915050600190039060005260206000200160009091909190916101000a81548173ffffffffffffffffffffffffffffffffffffffff021916908373ffffffffffffffffffffffffffffffffffffffff1602179055506040518060a001604052808981526020018881526020018781526020018681526020018373ffffffffffffffffffffffffffffffffffffffff16815250600260008373ffffffffffffffffffffffffffffffffffffffff1673ffffffffffffffffffffffffffffffffffffffff16815260200190815260200160002060008201518160000190805190602001906200075492919062000a08565b5060208201518160010190805190602001906200077392919062000a08565b50604082015181600201556060820151816003015560808201518160040160006101000a81548173ffffffffffffffffffffffffffffffffffffffff021916908373ffffffffffffffffffffffffffffffffffffffff1602179055509050507f587ece4cd19692c5be1a4184503d607d45542d2aca0698c0068f52e09ccb541c81836040516200080592919062000dd4565b60405180910390a180935050505095945050505050565b6200082662000920565b73ffffffffffffffffffffffffffffffffffffffff166200084662000520565b73ffffffffffffffffffffffffffffffffffffffff16146200089f576040517f08c379a0000000000000000000000000000000000000000000000000000000008152600401620008969062000edf565b60405180910390fd5b600073ffffffffffffffffffffffffffffffffffffffff168173ffffffffffffffffffffffffffffffffffffffff16141562000912576040517f08c379a0000000000000000000000000000000000000000000000000000000008152600401620009099062000ebd565b60405180910390fd5b6200091d8162000928565b50565b600033905090565b60008060009054906101000a900473ffffffffffffffffffffffffffffffffffffffff169050816000806101000a81548173ffffffffffffffffffffffffffffffffffffffff021916908373ffffffffffffffffffffffffffffffffffffffff1602179055508173ffffffffffffffffffffffffffffffffffffffff168173ffffffffffffffffffffffffffffffffffffffff167f8be0079c531659141344cd1fd0a4f28419497f9722a3daafe3b4186f6b6457e060405160405180910390a35050565b61598d806200123e83390190565b6122c78062006bcb83390190565b82805462000a16906200109c565b90600052602060002090601f01602090048101928262000a3a576000855562000a86565b82601f1062000a5557805160ff191683800117855562000a86565b8280016001018555821562000a86579182015b8281111562000a8557825182559160200191906001019062000a68565b5b50905062000a95919062000a99565b5090565b5b8082111562000ab457600081600090555060010162000a9a565b5090565b600062000acf62000ac98462000f2a565b62000f01565b90508281526020810184848401111562000ae857600080fd5b62000af584828562001057565b509392505050565b60008135905062000b0e81620011ef565b92915050565b60008135905062000b258162001209565b92915050565b600082601f83011262000b3d57600080fd5b813562000b4f84826020860162000ab8565b91505092915050565b60008135905062000b698162001223565b92915050565b60006020828403121562000b8257600080fd5b600062000b928482850162000afd565b91505092915050565b600080600080600060a0868803121562000bb457600080fd5b600062000bc48882890162000b14565b955050602086013567ffffffffffffffff81111562000be257600080fd5b62000bf08882890162000b2b565b945050604086013567ffffffffffffffff81111562000c0e57600080fd5b62000c1c8882890162000b2b565b935050606062000c2f8882890162000b58565b925050608062000c428882890162000b58565b9150509295509295909350565b600062000c5d838362000c69565b60208301905092915050565b62000c748162000fb5565b82525050565b62000c858162000fb5565b82525050565b600062000c988262000f70565b62000ca4818562000f93565b935062000cb18362000f60565b8060005b8381101562000ce857815162000ccc888262000c4f565b975062000cd98362000f86565b92505060018101905062000cb5565b5085935050505092915050565b62000d008162001007565b82525050565b62000d11816200102f565b82525050565b600062000d248262000f7b565b62000d30818562000fa4565b935062000d4281856020860162001066565b62000d4d8162001166565b840191505092915050565b600062000d6760268362000fa4565b915062000d748262001177565b604082019050919050565b600062000d8e60208362000fa4565b915062000d9b82620011c6565b602082019050919050565b62000db18162000ffd565b82525050565b600060208201905062000dce600083018462000c7a565b92915050565b600060408201905062000deb600083018562000c7a565b62000dfa602083018462000c7a565b9392505050565b6000602082019050818103600083015262000e1d818462000c8b565b905092915050565b600060408201905062000e3c600083018562000cf5565b62000e4b602083018462000d06565b9392505050565b600060a082019050818103600083015262000e6e818862000d17565b9050818103602083015262000e84818762000d17565b905062000e95604083018662000da6565b62000ea4606083018562000da6565b62000eb3608083018462000c7a565b9695505050505050565b6000602082019050818103600083015262000ed88162000d58565b9050919050565b6000602082019050818103600083015262000efa8162000d7f565b9050919050565b600062000f0d62000f20565b905062000f1b8282620010d2565b919050565b6000604051905090565b600067ffffffffffffffff82111562000f485762000f4762001137565b5b62000f538262001166565b9050602081019050919050565b6000819050602082019050919050565b600081519050919050565b600081519050919050565b6000602082019050919050565b600082825260208201905092915050565b600082825260208201905092915050565b600062000fc28262000fdd565b9050919050565b600062000fd68262000fb5565b9050919050565b600073ffffffffffffffffffffffffffffffffffffffff82169050919050565b6000819050919050565b600062001014826200101b565b9050919050565b6000620010288262000fdd565b9050919050565b60006200103c8262001043565b9050919050565b6000620010508262000fdd565b9050919050565b82818337600083830152505050565b60005b838110156200108657808201518184015260208101905062001069565b8381111562001096576000848401525b50505050565b60006002820490506001821680620010b557607f821691505b60208210811415620010cc57620010cb62001108565b5b50919050565b620010dd8262001166565b810181811067ffffffffffffffff82111715620010ff57620010fe62001137565b5b80604052505050565b7f4e487b7100000000000000000000000000000000000000000000000000000000600052602260045260246000fd5b7f4e487b7100000000000000000000000000000000000000000000000000000000600052604160045260246000fd5b6000601f19601f8301169050919050565b7f4f776e61626c653a206e6577206f776e657220697320746865207a65726f206160008201527f6464726573730000000000000000000000000000000000000000000000000000602082015250565b7f4f776e61626c653a2063616c6c6572206973206e6f7420746865206f776e6572600082015250565b620011fa8162000fb5565b81146200120657600080fd5b50565b620012148162000fc9565b81146200122057600080fd5b50565b6200122e8162000ffd565b81146200123a57600080fd5b5056fe60806040523480156200001157600080fd5b506040516200598d3803806200598d8339818101604052810190620000379190620003c2565b848481600190805190602001906200005192919062000272565b5080600290805190602001906200006a92919062000272565b5050506200009f7f9f2df0fed2c77648de5860a4cc508cd0818c85b8b8a1ab4ceeef8d981c8956a682620000f960201b60201c565b82600f819055508160108190555080600a60006101000a81548173ffffffffffffffffffffffffffffffffffffffff021916908373ffffffffffffffffffffffffffffffffffffffff160217905550505050505062000658565b6200010b82826200010f60201b60201c565b5050565b6200012182826200020060201b60201c565b620001fc57600160008084815260200190815260200160002060000160008373ffffffffffffffffffffffffffffffffffffffff1673ffffffffffffffffffffffffffffffffffffffff16815260200190815260200160002060006101000a81548160ff021916908315150217905550620001a16200026a60201b60201c565b73ffffffffffffffffffffffffffffffffffffffff168173ffffffffffffffffffffffffffffffffffffffff16837f2f8788117e7eff1d82e926ec794901d17c78024a50270940304540a733656f0d60405160405180910390a45b5050565b600080600084815260200190815260200160002060000160008373ffffffffffffffffffffffffffffffffffffffff1673ffffffffffffffffffffffffffffffffffffffff16815260200190815260200160002060009054906101000a900460ff16905092915050565b600033905090565b828054620002809062000549565b90600052602060002090601f016020900481019282620002a45760008555620002f0565b82601f10620002bf57805160ff1916838001178555620002f0565b82800160010185558215620002f0579182015b82811115620002ef578251825591602001919060010190620002d2565b5b509050620002ff919062000303565b5090565b5b808211156200031e57600081600090555060010162000304565b5090565b60006200033962000333846200049f565b62000476565b9050828152602081018484840111156200035257600080fd5b6200035f84828562000513565b509392505050565b600081519050620003788162000624565b92915050565b600082601f8301126200039057600080fd5b8151620003a284826020860162000322565b91505092915050565b600081519050620003bc816200063e565b92915050565b600080600080600060a08688031215620003db57600080fd5b600086015167ffffffffffffffff811115620003f657600080fd5b62000404888289016200037e565b955050602086015167ffffffffffffffff8111156200042257600080fd5b62000430888289016200037e565b94505060406200044388828901620003ab565b93505060606200045688828901620003ab565b9250506080620004698882890162000367565b9150509295509295909350565b60006200048262000495565b90506200049082826200057f565b919050565b6000604051905090565b600067ffffffffffffffff821115620004bd57620004bc620005e4565b5b620004c88262000613565b9050602081019050919050565b6000620004e282620004e9565b9050919050565b600073ffffffffffffffffffffffffffffffffffffffff82169050919050565b6000819050919050565b60005b838110156200053357808201518184015260208101905062000516565b8381111562000543576000848401525b50505050565b600060028204905060018216806200056257607f821691505b60208210811415620005795762000578620005b5565b5b50919050565b6200058a8262000613565b810181811067ffffffffffffffff82111715620005ac57620005ab620005e4565b5b80604052505050565b7f4e487b7100000000000000000000000000000000000000000000000000000000600052602260045260246000fd5b7f4e487b7100000000000000000000000000000000000000000000000000000000600052604160045260246000fd5b6000601f19601f8301169050919050565b6200062f81620004d5565b81146200063b57600080fd5b50565b620006498162000509565b81146200065557600080fd5b50565b61532580620006686000396000f3fe608060405234801561001057600080fd5b50600436106102325760003560e01c806370a0823111610130578063abb95b74116100b8578063d45be3ae1161007c578063d45be3ae146106b3578063d5391393146106e3578063d547741f14610701578063e3278ad61461071d578063e985e9c51461073b57610232565b8063abb95b74146105fd578063b632c9e41461061b578063b88d4fde1461064b578063c83b459014610667578063c87b56dd1461068357610232565b806395d89b41116100ff57806395d89b411461056b57806399411bee146105895780639ad570f6146105a5578063a217fddf146105c3578063a22cb465146105e157610232565b806370a08231146104d1578063750e024c1461050157806387bb7ae01461051d57806391d148541461053b57610232565b806324c14160116101be5780634644be60116101825780634644be601461041d578063569e35db146104395780636352211e1461046957806364d7f44f146104995780636afadefb146104b557610232565b806324c14160146103775780632f2ff15d146103ab57806335fe12d8146103c757806336568abe146103e557806342842e0e1461040157610232565b8063095ea7b311610205578063095ea7b3146102d35780630b705578146102ef5780630cdf1df71461030d57806323b872dd1461032b578063248a9ca31461034757610232565b806301ffc9a714610237578063065366ee1461026757806306fdde0314610285578063081812fc146102a3575b600080fd5b610251600480360381019061024c9190613ca5565b61076b565b60405161025e9190614384565b60405180910390f35b61026f61077d565b60405161027c91906146dc565b60405180910390f35b61028d6107d2565b60405161029a91906143ba565b60405180910390f35b6102bd60048036038101906102b89190613cf7565b610864565b6040516102ca91906142fb565b60405180910390f35b6102ed60048036038101906102e89190613c04565b6108e9565b005b6102f7610a01565b60405161030491906142fb565b60405180910390f35b610315610a2b565b60405161032291906146dc565b60405180910390f35b61034560048036038101906103409190613afe565b610a35565b005b610361600480360381019061035c9190613c40565b610a95565b60405161036e919061439f565b60405180910390f35b610391600480360381019061038c9190613cf7565b610ab4565b6040516103a29594939291906146f7565b60405180910390f35b6103c560048036038101906103c09190613c69565b610be7565b005b6103cf610c10565b6040516103dc9190614362565b60405180910390f35b6103ff60048036038101906103fa9190613c69565b610c68565b005b61041b60048036038101906104169190613afe565b610ceb565b005b61043760048036038101906104329190613d20565b610d0b565b005b610453600480360381019061044e9190613cf7565b610de3565b60405161046091906146dc565b60405180910390f35b610483600480360381019061047e9190613cf7565b610e03565b60405161049091906142fb565b60405180910390f35b6104b360048036038101906104ae9190613d5c565b610eb5565b005b6104cf60048036038101906104ca9190613a99565b61111e565b005b6104eb60048036038101906104e69190613a99565b6112ee565b6040516104f891906146dc565b60405180910390f35b61051b60048036038101906105169190613d20565b6113a6565b005b610525611477565b60405161053291906146dc565b60405180910390f35b61055560048036038101906105509190613c69565b611481565b6040516105629190614384565b60405180910390f35b6105736114eb565b60405161058091906143ba565b60405180910390f35b6105a3600480360381019061059e9190613a99565b61157d565b005b6105ad61174d565b6040516105ba9190614362565b60405180910390f35b6105cb6117a5565b6040516105d8919061439f565b60405180910390f35b6105fb60048036038101906105f69190613bc8565b6117ac565b005b6106056117c2565b6040516106129190614362565b60405180910390f35b61063560048036038101906106309190613a99565b61181a565b6040516106429190614362565b60405180910390f35b61066560048036038101906106609190613b4d565b6118b1565b005b610681600480360381019061067c9190613c04565b611913565b005b61069d60048036038101906106989190613cf7565b611bbf565b6040516106aa91906143ba565b60405180910390f35b6106cd60048036038101906106c89190613a99565b611c66565b6040516106da9190614384565b60405180910390f35b6106eb611d3b565b6040516106f8919061439f565b60405180910390f35b61071b60048036038101906107169190613c69565b611d5f565b005b610725611d88565b60405161073291906146dc565b60405180910390f35b61075560048036038101906107509190613ac2565b611d99565b6040516107629190614384565b60405180910390f35b600061077682611e2d565b9050919050565b6000600c61078b6008611f0f565b815481106107c2577f4e487b7100000000000000000000000000000000000000000000000000000000600052603260045260246000fd5b9060005260206000200154905090565b6060600180546107e190614a22565b80601f016020809104026020016040519081016040528092919081815260200182805461080d90614a22565b801561085a5780601f1061082f5761010080835404028352916020019161085a565b820191906000526020600020905b81548152906001019060200180831161083d57829003601f168201915b5050505050905090565b600061086f82611f1d565b6108ae576040517f08c379a00000000000000000000000000000000000000000000000000000000081526004016108a59061459c565b60405180910390fd5b6005600083815260200190815260200160002060009054906101000a900473ffffffffffffffffffffffffffffffffffffffff169050919050565b60006108f482610e03565b90508073ffffffffffffffffffffffffffffffffffffffff168373ffffffffffffffffffffffffffffffffffffffff161415610965576040517f08c379a000000000000000000000000000000000000000000000000000000000815260040161095c906145dc565b60405180910390fd5b8073ffffffffffffffffffffffffffffffffffffffff16610984611f89565b73ffffffffffffffffffffffffffffffffffffffff1614806109b357506109b2816109ad611f89565b611d99565b5b6109f2576040517f08c379a00000000000000000000000000000000000000000000000000000000081526004016109e9906144fc565b60405180910390fd5b6109fc8383611f91565b505050565b6000600a60009054906101000a900473ffffffffffffffffffffffffffffffffffffffff16905090565b6000601154905090565b610a46610a40611f89565b8261204a565b610a85576040517f08c379a0000000000000000000000000000000000000000000000000000000008152600401610a7c9061461c565b60405180910390fd5b610a90838383612128565b505050565b6000806000838152602001908152602001600020600101549050919050565b6000806000806060601260008781526020019081526020016000206000015460126000888152602001908152602001600020600101546012600089815260200190815260200160002060020160009054906101000a900460ff16601260008a815260200190815260200160002060020160019054906101000a900460ff16601260008b8152602001908152602001600020600301808054610b5490614a22565b80601f0160208091040260200160405190810160405280929190818152602001828054610b8090614a22565b8015610bcd5780601f10610ba257610100808354040283529160200191610bcd565b820191906000526020600020905b815481529060010190602001808311610bb057829003601f168201915b505050505090509450945094509450945091939590929450565b610bf082610a95565b610c0181610bfc611f89565b61238f565b610c0b838361242c565b505050565b6060600c805480602002602001604051908101604052809291908181526020018280548015610c5e57602002820191906000526020600020905b815481526020019060010190808311610c4a575b5050505050905090565b610c70611f89565b73ffffffffffffffffffffffffffffffffffffffff168173ffffffffffffffffffffffffffffffffffffffff1614610cdd576040517f08c379a0000000000000000000000000000000000000000000000000000000008152600401610cd49061469c565b60405180910390fd5b610ce7828261250c565b5050565b610d06838383604051806020016040528060008152506118b1565b505050565b601054610d186007611f0f565b10610d58576040517f08c379a0000000000000000000000000000000000000000000000000000000008152600401610d4f906144dc565b60405180910390fd5b6103e882610d64611d88565b610d6e9190614823565b1115610daf576040517f08c379a0000000000000000000000000000000000000000000000000000000008152600401610da69061455c565b60405180910390fd5b8160118190555060005b82811015610dde57610dca826125ed565b508080610dd690614a85565b915050610db9565b505050565b600060126000838152602001908152602001600020600101549050919050565b6000806003600084815260200190815260200160002060009054906101000a900473ffffffffffffffffffffffffffffffffffffffff169050600073ffffffffffffffffffffffffffffffffffffffff168173ffffffffffffffffffffffffffffffffffffffff161415610eac576040517f08c379a0000000000000000000000000000000000000000000000000000000008152600401610ea39061453c565b60405180910390fd5b80915050919050565b6000601260008581526020019081526020016000206000015490506012600085815260200190815260200160002060020160019054906101000a900460ff16610f33576040517f08c379a0000000000000000000000000000000000000000000000000000000008152600401610f2a9061463c565b60405180910390fd5b826064608283610f4391906148aa565b610f4d9190614879565b11610f8d576040517f08c379a0000000000000000000000000000000000000000000000000000000008152600401610f849061467c565b60405180910390fd5b610fbe7f9f2df0fed2c77648de5860a4cc508cd0818c85b8b8a1ab4ceeef8d981c8956a6610fb9611f89565b611481565b15610ffe576040517f08c379a0000000000000000000000000000000000000000000000000000000008152600401610ff59061465c565b60405180910390fd5b82601260008681526020019081526020016000206001018190555060016012600086815260200190815260200160002060020160006101000a81548160ff02191690831515021790555060006012600086815260200190815260200160002060020160016101000a81548160ff0219169083151502179055506040518060400160405280601381526020017f57616974696e6720466f722052652d73656c6c000000000000000000000000008152506012600086815260200190815260200160002060030190805190602001906110d6929190613910565b506110e08461279f565b61110e57600c8490806001815401808255809150506001900390600052602060002001600090919091909150555b61111882856108e9565b50505050565b600061112a6008611f0f565b90506000600d8281548110611168577f4e487b7100000000000000000000000000000000000000000000000000000000600052603260045260246000fd5b9060005260206000200154905061117f6008612828565b61118881610e03565b73ffffffffffffffffffffffffffffffffffffffff163373ffffffffffffffffffffffffffffffffffffffff16146111f5576040517f08c379a00000000000000000000000000000000000000000000000000000000081526004016111ec906145fc565b60405180910390fd5b6111ff83826108e9565b61121261120b82610e03565b8483610a35565b61121b83611c66565b61128357600b839080600181540180825580915050600190039060005260206000200160009091909190916101000a81548173ffffffffffffffffffffffffffffffffffffffff021916908373ffffffffffffffffffffffffffffffffffffffff1602179055505b601360008473ffffffffffffffffffffffffffffffffffffffff1673ffffffffffffffffffffffffffffffffffffffff168152602001908152602001600020819080600181540180825580915050600190039060005260206000200160009091909190915055505050565b60008073ffffffffffffffffffffffffffffffffffffffff168273ffffffffffffffffffffffffffffffffffffffff16141561135f576040517f08c379a00000000000000000000000000000000000000000000000000000000081526004016113569061451c565b60405180910390fd5b600460008373ffffffffffffffffffffffffffffffffffffffff1673ffffffffffffffffffffffffffffffffffffffff168152602001908152602001600020549050919050565b6010546113b36007611f0f565b106113f3576040517f08c379a00000000000000000000000000000000000000000000000000000000081526004016113ea906144dc565b60405180910390fd5b6103e8826113ff611d88565b6114099190614823565b111561144a576040517f08c379a00000000000000000000000000000000000000000000000000000000081526004016114419061455c565b60405180910390fd5b60005b828110156114725761145e8261283e565b50808061146a90614a85565b91505061144d565b505050565b6000600f54905090565b600080600084815260200190815260200160002060000160008373ffffffffffffffffffffffffffffffffffffffff1673ffffffffffffffffffffffffffffffffffffffff16815260200190815260200160002060009054906101000a900460ff16905092915050565b6060600280546114fa90614a22565b80601f016020809104026020016040519081016040528092919081815260200182805461152690614a22565b80156115735780601f1061154857610100808354040283529160200191611573565b820191906000526020600020905b81548152906001019060200180831161155657829003601f168201915b5050505050905090565b60006115896009611f0f565b90506000600e82815481106115c7577f4e487b7100000000000000000000000000000000000000000000000000000000600052603260045260246000fd5b906000526020600020015490506115de6008612828565b6115e781610e03565b73ffffffffffffffffffffffffffffffffffffffff163373ffffffffffffffffffffffffffffffffffffffff1614611654576040517f08c379a000000000000000000000000000000000000000000000000000000000815260040161164b906145fc565b60405180910390fd5b61165e83826108e9565b61167161166a82610e03565b8483610a35565b61167a83611c66565b6116e257600b839080600181540180825580915050600190039060005260206000200160009091909190916101000a81548173ffffffffffffffffffffffffffffffffffffffff021916908373ffffffffffffffffffffffffffffffffffffffff1602179055505b601360008473ffffffffffffffffffffffffffffffffffffffff1673ffffffffffffffffffffffffffffffffffffffff168152602001908152602001600020819080600181540180825580915050600190039060005260206000200160009091909190915055505050565b6060600e80548060200260200160405190810160405280929190818152602001828054801561179b57602002820191906000526020600020905b815481526020019060010190808311611787575b5050505050905090565b6000801b81565b6117be6117b7611f89565b83836129f0565b5050565b6060600d80548060200260200160405190810160405280929190818152602001828054801561181057602002820191906000526020600020905b8154815260200190600101908083116117fc575b5050505050905090565b6060601360008373ffffffffffffffffffffffffffffffffffffffff1673ffffffffffffffffffffffffffffffffffffffff1681526020019081526020016000208054806020026020016040519081016040528092919081815260200182805480156118a557602002820191906000526020600020905b815481526020019060010190808311611891575b50505050509050919050565b6118c26118bc611f89565b8361204a565b611901576040517f08c379a00000000000000000000000000000000000000000000000000000000081526004016118f89061461c565b60405180910390fd5b61190d84848484612b5d565b50505050565b80600060126000838152602001908152602001600020600001549050600060126000848152602001908152602001600020600101549050806064606e8461195a91906148aa565b6119649190614879565b8361196f9190614823565b116119af576040517f08c379a00000000000000000000000000000000000000000000000000000000081526004016119a6906146bc565b60405180910390fd5b60006119ba85610e03565b90506000601260008781526020019081526020016000206001015490506119e2828888610a35565b6119eb87611c66565b611a5357600b879080600181540180825580915050600190039060005260206000200160009091909190916101000a81548173ffffffffffffffffffffffffffffffffffffffff021916908373ffffffffffffffffffffffffffffffffffffffff1602179055505b601360008873ffffffffffffffffffffffffffffffffffffffff1673ffffffffffffffffffffffffffffffffffffffff168152602001908152602001600020869080600181540180825580915050600190039060005260206000200160009091909190915055611ac38287612bb9565b611acc86612e41565b6040518060a00160405280828152602001600081526020016000151581526020016000151581526020016040518060400160405280601481526020017f5472616e73666572656420746f206f746865727300000000000000000000000081525081525060126000888152602001908152602001600020600082015181600001556020820151816001015560408201518160020160006101000a81548160ff02191690831515021790555060608201518160020160016101000a81548160ff0219169083151502179055506080820151816003019080519060200190611bb2929190613910565b5090505050505050505050565b6060611bca82611f1d565b611c09576040517f08c379a0000000000000000000000000000000000000000000000000000000008152600401611c00906145bc565b60405180910390fd5b6000611c13612fd0565b90506000815111611c335760405180602001604052806000815250611c5e565b80611c3d84612fe7565b604051602001611c4e92919061429d565b6040516020818303038152906040525b915050919050565b600080600090505b600b80549050811015611d30578273ffffffffffffffffffffffffffffffffffffffff16600b8281548110611ccc577f4e487b7100000000000000000000000000000000000000000000000000000000600052603260045260246000fd5b9060005260206000200160009054906101000a900473ffffffffffffffffffffffffffffffffffffffff1673ffffffffffffffffffffffffffffffffffffffff161415611d1d576001915050611d36565b8080611d2890614a85565b915050611c6e565b50600090505b919050565b7f9f2df0fed2c77648de5860a4cc508cd0818c85b8b8a1ab4ceeef8d981c8956a681565b611d6882610a95565b611d7981611d74611f89565b61238f565b611d83838361250c565b505050565b6000611d946007611f0f565b905090565b6000600660008473ffffffffffffffffffffffffffffffffffffffff1673ffffffffffffffffffffffffffffffffffffffff16815260200190815260200160002060008373ffffffffffffffffffffffffffffffffffffffff1673ffffffffffffffffffffffffffffffffffffffff16815260200190815260200160002060009054906101000a900460ff16905092915050565b60007f80ac58cd000000000000000000000000000000000000000000000000000000007bffffffffffffffffffffffffffffffffffffffffffffffffffffffff1916827bffffffffffffffffffffffffffffffffffffffffffffffffffffffff19161480611ef857507f5b5e139f000000000000000000000000000000000000000000000000000000007bffffffffffffffffffffffffffffffffffffffffffffffffffffffff1916827bffffffffffffffffffffffffffffffffffffffffffffffffffffffff1916145b80611f085750611f0782613194565b5b9050919050565b600081600001549050919050565b60008073ffffffffffffffffffffffffffffffffffffffff166003600084815260200190815260200160002060009054906101000a900473ffffffffffffffffffffffffffffffffffffffff1673ffffffffffffffffffffffffffffffffffffffff1614159050919050565b600033905090565b816005600083815260200190815260200160002060006101000a81548173ffffffffffffffffffffffffffffffffffffffff021916908373ffffffffffffffffffffffffffffffffffffffff160217905550808273ffffffffffffffffffffffffffffffffffffffff1661200483610e03565b73ffffffffffffffffffffffffffffffffffffffff167f8c5be1e5ebec7d5bd14f71427d1e84f3dd0314c0f7b2291e5b200ac8c7c3b92560405160405180910390a45050565b600061205582611f1d565b612094576040517f08c379a000000000000000000000000000000000000000000000000000000000815260040161208b9061449c565b60405180910390fd5b600061209f83610e03565b90508073ffffffffffffffffffffffffffffffffffffffff168473ffffffffffffffffffffffffffffffffffffffff16148061210e57508373ffffffffffffffffffffffffffffffffffffffff166120f684610864565b73ffffffffffffffffffffffffffffffffffffffff16145b8061211f575061211e8185611d99565b5b91505092915050565b8273ffffffffffffffffffffffffffffffffffffffff1661214882610e03565b73ffffffffffffffffffffffffffffffffffffffff161461219e576040517f08c379a00000000000000000000000000000000000000000000000000000000081526004016121959061441c565b60405180910390fd5b600073ffffffffffffffffffffffffffffffffffffffff168273ffffffffffffffffffffffffffffffffffffffff16141561220e576040517f08c379a00000000000000000000000000000000000000000000000000000000081526004016122059061445c565b60405180910390fd5b61221983838361320e565b612224600082611f91565b6001600460008573ffffffffffffffffffffffffffffffffffffffff1673ffffffffffffffffffffffffffffffffffffffff16815260200190815260200160002060008282546122749190614904565b925050819055506001600460008473ffffffffffffffffffffffffffffffffffffffff1673ffffffffffffffffffffffffffffffffffffffff16815260200190815260200160002060008282546122cb9190614823565b92505081905550816003600083815260200190815260200160002060006101000a81548173ffffffffffffffffffffffffffffffffffffffff021916908373ffffffffffffffffffffffffffffffffffffffff160217905550808273ffffffffffffffffffffffffffffffffffffffff168473ffffffffffffffffffffffffffffffffffffffff167fddf252ad1be2c89b69c2b068fc378daa952ba7f163c4a11628f55a4df523b3ef60405160405180910390a461238a838383613213565b505050565b6123998282611481565b612428576123be8173ffffffffffffffffffffffffffffffffffffffff166014613218565b6123cc8360001c6020613218565b6040516020016123dd9291906142c1565b6040516020818303038152906040526040517f08c379a000000000000000000000000000000000000000000000000000000000815260040161241f91906143ba565b60405180910390fd5b5050565b6124368282611481565b61250857600160008084815260200190815260200160002060000160008373ffffffffffffffffffffffffffffffffffffffff1673ffffffffffffffffffffffffffffffffffffffff16815260200190815260200160002060006101000a81548160ff0219169083151502179055506124ad611f89565b73ffffffffffffffffffffffffffffffffffffffff168173ffffffffffffffffffffffffffffffffffffffff16837f2f8788117e7eff1d82e926ec794901d17c78024a50270940304540a733656f0d60405160405180910390a45b5050565b6125168282611481565b156125e957600080600084815260200190815260200160002060000160008373ffffffffffffffffffffffffffffffffffffffff1673ffffffffffffffffffffffffffffffffffffffff16815260200190815260200160002060006101000a81548160ff02191690831515021790555061258e611f89565b73ffffffffffffffffffffffffffffffffffffffff168173ffffffffffffffffffffffffffffffffffffffff16837ff6391f5c32d9c69d2a47ea670b442974b53935d1edc7fd64eb21e047a839171b60405160405180910390a45b5050565b60006126207f9f2df0fed2c77648de5860a4cc508cd0818c85b8b8a1ab4ceeef8d981c8956a661261b611f89565b611481565b61265f576040517f08c379a0000000000000000000000000000000000000000000000000000000008152600401612656906144bc565b60405180910390fd5b6126696007612828565b60006126756007611f0f565b9050600e8190806001815401808255809150506001900390600052602060002001600090919091909150556126aa8382613512565b6040518060a00160405280600f548152602001600081526020016000151581526020016000151581526020016040518060400160405280601381526020017f57616974696e6720466f72204c6f74746572790000000000000000000000000081525081525060126000838152602001908152602001600020600082015181600001556020820151816001015560408201518160020160006101000a81548160ff02191690831515021790555060608201518160020160016101000a81548160ff0219169083151502179055506080820151816003019080519060200190612792929190613910565b5090505080915050919050565b600080600090505b600c8054905081101561281d5782600c82815481106127ef577f4e487b7100000000000000000000000000000000000000000000000000000000600052603260045260246000fd5b9060005260206000200154141561280a576001915050612823565b808061281590614a85565b9150506127a7565b50600090505b919050565b6001816000016000828254019250508190555050565b60006128717f9f2df0fed2c77648de5860a4cc508cd0818c85b8b8a1ab4ceeef8d981c8956a661286c611f89565b611481565b6128b0576040517f08c379a00000000000000000000000000000000000000000000000000000000081526004016128a7906144bc565b60405180910390fd5b6128ba6007612828565b60006128c66007611f0f565b9050600d8190806001815401808255809150506001900390600052602060002001600090919091909150556128fb8382613512565b6040518060a00160405280600f548152602001600081526020016000151581526020016001151581526020016040518060400160405280601681526020017f57616974696e6720466f722046697273742053616c650000000000000000000081525081525060126000838152602001908152602001600020600082015181600001556020820151816001015560408201518160020160006101000a81548160ff02191690831515021790555060608201518160020160016101000a81548160ff02191690831515021790555060808201518160030190805190602001906129e3929190613910565b5090505080915050919050565b8173ffffffffffffffffffffffffffffffffffffffff168373ffffffffffffffffffffffffffffffffffffffff161415612a5f576040517f08c379a0000000000000000000000000000000000000000000000000000000008152600401612a569061447c565b60405180910390fd5b80600660008573ffffffffffffffffffffffffffffffffffffffff1673ffffffffffffffffffffffffffffffffffffffff16815260200190815260200160002060008473ffffffffffffffffffffffffffffffffffffffff1673ffffffffffffffffffffffffffffffffffffffff16815260200190815260200160002060006101000a81548160ff0219169083151502179055508173ffffffffffffffffffffffffffffffffffffffff168373ffffffffffffffffffffffffffffffffffffffff167f17307eab39ab6107e8899845ad3d59bd9653f200f220920489ca2b5937696c3183604051612b509190614384565b60405180910390a3505050565b612b68848484612128565b612b74848484846136ec565b612bb3576040517f08c379a0000000000000000000000000000000000000000000000000000000008152600401612baa906143fc565b60405180910390fd5b50505050565b6000612bc48361181a565b51905060005b81811015612e3b5782601360008673ffffffffffffffffffffffffffffffffffffffff1673ffffffffffffffffffffffffffffffffffffffff1681526020019081526020016000208281548110612c4a577f4e487b7100000000000000000000000000000000000000000000000000000000600052603260045260246000fd5b90600052602060002001541415612e28576000600182612c6a9190614823565b90505b82811015612d9b57601360008673ffffffffffffffffffffffffffffffffffffffff1673ffffffffffffffffffffffffffffffffffffffff1681526020019081526020016000208181548110612cec577f4e487b7100000000000000000000000000000000000000000000000000000000600052603260045260246000fd5b9060005260206000200154601360008773ffffffffffffffffffffffffffffffffffffffff1673ffffffffffffffffffffffffffffffffffffffff168152602001908152602001600020600183612d439190614904565b81548110612d7a577f4e487b7100000000000000000000000000000000000000000000000000000000600052603260045260246000fd5b90600052602060002001819055508080612d9390614a85565b915050612c6d565b50601360008573ffffffffffffffffffffffffffffffffffffffff1673ffffffffffffffffffffffffffffffffffffffff168152602001908152602001600020805480612e11577f4e487b7100000000000000000000000000000000000000000000000000000000600052603160045260246000fd5b600190038181906000526020600020016000905590555b8080612e3390614a85565b915050612bca565b50505050565b6000600c80549050905060005b81811015612fcb5782600c8281548110612e91577f4e487b7100000000000000000000000000000000000000000000000000000000600052603260045260246000fd5b90600052602060002001541415612fb8576000600182612eb19190614823565b90505b82811015612f6857600c8181548110612ef6577f4e487b7100000000000000000000000000000000000000000000000000000000600052603260045260246000fd5b9060005260206000200154600c600183612f109190614904565b81548110612f47577f4e487b7100000000000000000000000000000000000000000000000000000000600052603260045260246000fd5b90600052602060002001819055508080612f6090614a85565b915050612eb4565b50600c805480612fa1577f4e487b7100000000000000000000000000000000000000000000000000000000600052603160045260246000fd5b600190038181906000526020600020016000905590555b8080612fc390614a85565b915050612e4e565b505050565b606060405180602001604052806000815250905090565b6060600082141561302f576040518060400160405280600181526020017f3000000000000000000000000000000000000000000000000000000000000000815250905061318f565b600082905060005b6000821461306157808061304a90614a85565b915050600a8261305a9190614879565b9150613037565b60008167ffffffffffffffff8111156130a3577f4e487b7100000000000000000000000000000000000000000000000000000000600052604160045260246000fd5b6040519080825280601f01601f1916602001820160405280156130d55781602001600182028036833780820191505090505b5090505b60008514613188576001826130ee9190614904565b9150600a856130fd9190614ace565b60306131099190614823565b60f81b818381518110613145577f4e487b7100000000000000000000000000000000000000000000000000000000600052603260045260246000fd5b60200101907effffffffffffffffffffffffffffffffffffffffffffffffffffffffffffff1916908160001a905350600a856131819190614879565b94506130d9565b8093505050505b919050565b60007f7965db0b000000000000000000000000000000000000000000000000000000007bffffffffffffffffffffffffffffffffffffffffffffffffffffffff1916827bffffffffffffffffffffffffffffffffffffffffffffffffffffffff19161480613207575061320682613883565b5b9050919050565b505050565b505050565b60606000600283600261322b91906148aa565b6132359190614823565b67ffffffffffffffff811115613274577f4e487b7100000000000000000000000000000000000000000000000000000000600052604160045260246000fd5b6040519080825280601f01601f1916602001820160405280156132a65781602001600182028036833780820191505090505b5090507f300000000000000000000000000000000000000000000000000000000000000081600081518110613304577f4e487b7100000000000000000000000000000000000000000000000000000000600052603260045260246000fd5b60200101907effffffffffffffffffffffffffffffffffffffffffffffffffffffffffffff1916908160001a9053507f78000000000000000000000000000000000000000000000000000000000000008160018151811061338e577f4e487b7100000000000000000000000000000000000000000000000000000000600052603260045260246000fd5b60200101907effffffffffffffffffffffffffffffffffffffffffffffffffffffffffffff1916908160001a905350600060018460026133ce91906148aa565b6133d89190614823565b90505b60018111156134c4577f3031323334353637383961626364656600000000000000000000000000000000600f861660108110613440577f4e487b7100000000000000000000000000000000000000000000000000000000600052603260045260246000fd5b1a60f81b82828151811061347d577f4e487b7100000000000000000000000000000000000000000000000000000000600052603260045260246000fd5b60200101907effffffffffffffffffffffffffffffffffffffffffffffffffffffffffffff1916908160001a905350600485901c9450806134bd906149f8565b90506133db565b5060008414613508576040517f08c379a00000000000000000000000000000000000000000000000000000000081526004016134ff906143dc565b60405180910390fd5b8091505092915050565b600073ffffffffffffffffffffffffffffffffffffffff168273ffffffffffffffffffffffffffffffffffffffff161415613582576040517f08c379a00000000000000000000000000000000000000000000000000000000081526004016135799061457c565b60405180910390fd5b61358b81611f1d565b156135cb576040517f08c379a00000000000000000000000000000000000000000000000000000000081526004016135c29061443c565b60405180910390fd5b6135d76000838361320e565b6001600460008473ffffffffffffffffffffffffffffffffffffffff1673ffffffffffffffffffffffffffffffffffffffff16815260200190815260200160002060008282546136279190614823565b92505081905550816003600083815260200190815260200160002060006101000a81548173ffffffffffffffffffffffffffffffffffffffff021916908373ffffffffffffffffffffffffffffffffffffffff160217905550808273ffffffffffffffffffffffffffffffffffffffff16600073ffffffffffffffffffffffffffffffffffffffff167fddf252ad1be2c89b69c2b068fc378daa952ba7f163c4a11628f55a4df523b3ef60405160405180910390a46136e860008383613213565b5050565b600061370d8473ffffffffffffffffffffffffffffffffffffffff166138ed565b15613876578373ffffffffffffffffffffffffffffffffffffffff1663150b7a02613736611f89565b8786866040518563ffffffff1660e01b81526004016137589493929190614316565b602060405180830381600087803b15801561377257600080fd5b505af19250505080156137a357506040513d601f19601f820116820180604052508101906137a09190613cce565b60015b613826573d80600081146137d3576040519150601f19603f3d011682016040523d82523d6000602084013e6137d8565b606091505b5060008151141561381e576040517f08c379a0000000000000000000000000000000000000000000000000000000008152600401613815906143fc565b60405180910390fd5b805181602001fd5b63150b7a0260e01b7bffffffffffffffffffffffffffffffffffffffffffffffffffffffff1916817bffffffffffffffffffffffffffffffffffffffffffffffffffffffff19161491505061387b565b600190505b949350505050565b60007f01ffc9a7000000000000000000000000000000000000000000000000000000007bffffffffffffffffffffffffffffffffffffffffffffffffffffffff1916827bffffffffffffffffffffffffffffffffffffffffffffffffffffffff1916149050919050565b6000808273ffffffffffffffffffffffffffffffffffffffff163b119050919050565b82805461391c90614a22565b90600052602060002090601f01602090048101928261393e5760008555613985565b82601f1061395757805160ff1916838001178555613985565b82800160010185558215613985579182015b82811115613984578251825591602001919060010190613969565b5b5090506139929190613996565b5090565b5b808211156139af576000816000905550600101613997565b5090565b60006139c66139c184614776565b614751565b9050828152602081018484840111156139de57600080fd5b6139e98482856149b6565b509392505050565b600081359050613a008161527c565b92915050565b600081359050613a1581615293565b92915050565b600081359050613a2a816152aa565b92915050565b600081359050613a3f816152c1565b92915050565b600081519050613a54816152c1565b92915050565b600082601f830112613a6b57600080fd5b8135613a7b8482602086016139b3565b91505092915050565b600081359050613a93816152d8565b92915050565b600060208284031215613aab57600080fd5b6000613ab9848285016139f1565b91505092915050565b60008060408385031215613ad557600080fd5b6000613ae3858286016139f1565b9250506020613af4858286016139f1565b9150509250929050565b600080600060608486031215613b1357600080fd5b6000613b21868287016139f1565b9350506020613b32868287016139f1565b9250506040613b4386828701613a84565b9150509250925092565b60008060008060808587031215613b6357600080fd5b6000613b71878288016139f1565b9450506020613b82878288016139f1565b9350506040613b9387828801613a84565b925050606085013567ffffffffffffffff811115613bb057600080fd5b613bbc87828801613a5a565b91505092959194509250565b60008060408385031215613bdb57600080fd5b6000613be9858286016139f1565b9250506020613bfa85828601613a06565b9150509250929050565b60008060408385031215613c1757600080fd5b6000613c25858286016139f1565b9250506020613c3685828601613a84565b9150509250929050565b600060208284031215613c5257600080fd5b6000613c6084828501613a1b565b91505092915050565b60008060408385031215613c7c57600080fd5b6000613c8a85828601613a1b565b9250506020613c9b858286016139f1565b9150509250929050565b600060208284031215613cb757600080fd5b6000613cc584828501613a30565b91505092915050565b600060208284031215613ce057600080fd5b6000613cee84828501613a45565b91505092915050565b600060208284031215613d0957600080fd5b6000613d1784828501613a84565b91505092915050565b60008060408385031215613d3357600080fd5b6000613d4185828601613a84565b9250506020613d52858286016139f1565b9150509250929050565b600080600060608486031215613d7157600080fd5b6000613d7f86828701613a84565b9350506020613d9086828701613a84565b9250506040613da1868287016139f1565b9150509250925092565b6000613db7838361427f565b60208301905092915050565b613dcc81614938565b82525050565b6000613ddd826147b7565b613de781856147e5565b9350613df2836147a7565b8060005b83811015613e23578151613e0a8882613dab565b9750613e15836147d8565b925050600181019050613df6565b5085935050505092915050565b613e398161494a565b82525050565b613e4881614956565b82525050565b6000613e59826147c2565b613e6381856147f6565b9350613e738185602086016149c5565b613e7c81614bbb565b840191505092915050565b6000613e92826147cd565b613e9c8185614807565b9350613eac8185602086016149c5565b613eb581614bbb565b840191505092915050565b6000613ecb826147cd565b613ed58185614818565b9350613ee58185602086016149c5565b80840191505092915050565b6000613efe602083614807565b9150613f0982614bcc565b602082019050919050565b6000613f21603283614807565b9150613f2c82614bf5565b604082019050919050565b6000613f44602583614807565b9150613f4f82614c44565b604082019050919050565b6000613f67601c83614807565b9150613f7282614c93565b602082019050919050565b6000613f8a602483614807565b9150613f9582614cbc565b604082019050919050565b6000613fad601983614807565b9150613fb882614d0b565b602082019050919050565b6000613fd0602c83614807565b9150613fdb82614d34565b604082019050919050565b6000613ff3602283614807565b9150613ffe82614d83565b604082019050919050565b6000614016601e83614807565b915061402182614dd2565b602082019050919050565b6000614039603883614807565b915061404482614dfb565b604082019050919050565b600061405c602a83614807565b915061406782614e4a565b604082019050919050565b600061407f602983614807565b915061408a82614e99565b604082019050919050565b60006140a2602e83614807565b91506140ad82614ee8565b604082019050919050565b60006140c5602083614807565b91506140d082614f37565b602082019050919050565b60006140e8602c83614807565b91506140f382614f60565b604082019050919050565b600061410b602f83614807565b915061411682614faf565b604082019050919050565b600061412e602183614807565b915061413982614ffe565b604082019050919050565b6000614151601d83614807565b915061415c8261504d565b602082019050919050565b6000614174603183614807565b915061417f82615076565b604082019050919050565b6000614197601c83614807565b91506141a2826150c5565b602082019050919050565b60006141ba601783614818565b91506141c5826150ee565b601782019050919050565b60006141dd602f83614807565b91506141e882615117565b604082019050919050565b6000614200602283614807565b915061420b82615166565b604082019050919050565b6000614223601183614818565b915061422e826151b5565b601182019050919050565b6000614246602f83614807565b9150614251826151de565b604082019050919050565b6000614269602283614807565b91506142748261522d565b604082019050919050565b614288816149ac565b82525050565b614297816149ac565b82525050565b60006142a98285613ec0565b91506142b58284613ec0565b91508190509392505050565b60006142cc826141ad565b91506142d88285613ec0565b91506142e382614216565b91506142ef8284613ec0565b91508190509392505050565b60006020820190506143106000830184613dc3565b92915050565b600060808201905061432b6000830187613dc3565b6143386020830186613dc3565b614345604083018561428e565b81810360608301526143578184613e4e565b905095945050505050565b6000602082019050818103600083015261437c8184613dd2565b905092915050565b60006020820190506143996000830184613e30565b92915050565b60006020820190506143b46000830184613e3f565b92915050565b600060208201905081810360008301526143d48184613e87565b905092915050565b600060208201905081810360008301526143f581613ef1565b9050919050565b6000602082019050818103600083015261441581613f14565b9050919050565b6000602082019050818103600083015261443581613f37565b9050919050565b6000602082019050818103600083015261445581613f5a565b9050919050565b6000602082019050818103600083015261447581613f7d565b9050919050565b6000602082019050818103600083015261449581613fa0565b9050919050565b600060208201905081810360008301526144b581613fc3565b9050919050565b600060208201905081810360008301526144d581613fe6565b9050919050565b600060208201905081810360008301526144f581614009565b9050919050565b600060208201905081810360008301526145158161402c565b9050919050565b600060208201905081810360008301526145358161404f565b9050919050565b6000602082019050818103600083015261455581614072565b9050919050565b6000602082019050818103600083015261457581614095565b9050919050565b60006020820190508181036000830152614595816140b8565b9050919050565b600060208201905081810360008301526145b5816140db565b9050919050565b600060208201905081810360008301526145d5816140fe565b9050919050565b600060208201905081810360008301526145f581614121565b9050919050565b6000602082019050818103600083015261461581614144565b9050919050565b6000602082019050818103600083015261463581614167565b9050919050565b600060208201905081810360008301526146558161418a565b9050919050565b60006020820190508181036000830152614675816141d0565b9050919050565b60006020820190508181036000830152614695816141f3565b9050919050565b600060208201905081810360008301526146b581614239565b9050919050565b600060208201905081810360008301526146d58161425c565b9050919050565b60006020820190506146f1600083018461428e565b92915050565b600060a08201905061470c600083018861428e565b614719602083018761428e565b6147266040830186613e30565b6147336060830185613e30565b81810360808301526147458184613e87565b90509695505050505050565b600061475b61476c565b90506147678282614a54565b919050565b6000604051905090565b600067ffffffffffffffff82111561479157614790614b8c565b5b61479a82614bbb565b9050602081019050919050565b6000819050602082019050919050565b600081519050919050565b600081519050919050565b600081519050919050565b6000602082019050919050565b600082825260208201905092915050565b600082825260208201905092915050565b600082825260208201905092915050565b600081905092915050565b600061482e826149ac565b9150614839836149ac565b9250827fffffffffffffffffffffffffffffffffffffffffffffffffffffffffffffffff0382111561486e5761486d614aff565b5b828201905092915050565b6000614884826149ac565b915061488f836149ac565b92508261489f5761489e614b2e565b5b828204905092915050565b60006148b5826149ac565b91506148c0836149ac565b9250817fffffffffffffffffffffffffffffffffffffffffffffffffffffffffffffffff04831182151516156148f9576148f8614aff565b5b828202905092915050565b600061490f826149ac565b915061491a836149ac565b92508282101561492d5761492c614aff565b5b828203905092915050565b60006149438261498c565b9050919050565b60008115159050919050565b6000819050919050565b60007fffffffff0000000000000000000000000000000000000000000000000000000082169050919050565b600073ffffffffffffffffffffffffffffffffffffffff82169050919050565b6000819050919050565b82818337600083830152505050565b60005b838110156149e35780820151818401526020810190506149c8565b838111156149f2576000848401525b50505050565b6000614a03826149ac565b91506000821415614a1757614a16614aff565b5b600182039050919050565b60006002820490506001821680614a3a57607f821691505b60208210811415614a4e57614a4d614b5d565b5b50919050565b614a5d82614bbb565b810181811067ffffffffffffffff82111715614a7c57614a7b614b8c565b5b80604052505050565b6000614a90826149ac565b91507fffffffffffffffffffffffffffffffffffffffffffffffffffffffffffffffff821415614ac357614ac2614aff565b5b600182019050919050565b6000614ad9826149ac565b9150614ae4836149ac565b925082614af457614af3614b2e565b5b828206905092915050565b7f4e487b7100000000000000000000000000000000000000000000000000000000600052601160045260246000fd5b7f4e487b7100000000000000000000000000000000000000000000000000000000600052601260045260246000fd5b7f4e487b7100000000000000000000000000000000000000000000000000000000600052602260045260246000fd5b7f4e487b7100000000000000000000000000000000000000000000000000000000600052604160045260246000fd5b6000601f19601f8301169050919050565b7f537472696e67733a20686578206c656e67746820696e73756666696369656e74600082015250565b7f4552433732313a207472616e7366657220746f206e6f6e20455243373231526560008201527f63656976657220696d706c656d656e7465720000000000000000000000000000602082015250565b7f4552433732313a207472616e736665722066726f6d20696e636f72726563742060008201527f6f776e6572000000000000000000000000000000000000000000000000000000602082015250565b7f4552433732313a20746f6b656e20616c7265616479206d696e74656400000000600082015250565b7f4552433732313a207472616e7366657220746f20746865207a65726f2061646460008201527f7265737300000000000000000000000000000000000000000000000000000000602082015250565b7f4552433732313a20617070726f766520746f2063616c6c657200000000000000600082015250565b7f4552433732313a206f70657261746f7220717565727920666f72206e6f6e657860008201527f697374656e7420746f6b656e0000000000000000000000000000000000000000602082015250565b7f55736572206d7573742068617665206d696e74657220726f6c6520746f206d6960008201527f6e74000000000000000000000000000000000000000000000000000000000000602082015250565b7f4d6178696d756d207469636b6574206c696d6974206578636565646564210000600082015250565b7f4552433732313a20617070726f76652063616c6c6572206973206e6f74206f7760008201527f6e6572206e6f7220617070726f76656420666f7220616c6c0000000000000000602082015250565b7f4552433732313a2062616c616e636520717565727920666f7220746865207a6560008201527f726f206164647265737300000000000000000000000000000000000000000000602082015250565b7f4552433732313a206f776e657220717565727920666f72206e6f6e657869737460008201527f656e7420746f6b656e0000000000000000000000000000000000000000000000602082015250565b7f4e756d626572206f66207469636b6574732065786365656473206d6178696d7560008201527f6d207469636b657420636f756e74000000000000000000000000000000000000602082015250565b7f4552433732313a206d696e7420746f20746865207a65726f2061646472657373600082015250565b7f4552433732313a20617070726f76656420717565727920666f72206e6f6e657860008201527f697374656e7420746f6b656e0000000000000000000000000000000000000000602082015250565b7f4552433732314d657461646174613a2055524920717565727920666f72206e6f60008201527f6e6578697374656e7420746f6b656e0000000000000000000000000000000000602082015250565b7f4552433732313a20617070726f76616c20746f2063757272656e74206f776e6560008201527f7200000000000000000000000000000000000000000000000000000000000000602082015250565b7f4f6e6c7920696e697469616c20707572636861736520616c6c6f776564000000600082015250565b7f4552433732313a207472616e736665722063616c6c6572206973206e6f74206f60008201527f776e6572206e6f7220617070726f766564000000000000000000000000000000602082015250565b7f546865207469636b65742063616e6e6f742062652072652d73656c6c00000000600082015250565b7f416363657373436f6e74726f6c3a206163636f756e7420000000000000000000600082015250565b7f46756e6374696f6e616c697479206f6e6c7920616c6c6f77656420666f72207360008201527f65636f6e64617279206d61726b65740000000000000000000000000000000000602082015250565b7f52652d73656c6c696e67207072696365206973206d6f7265207468616e20313360008201527f3025000000000000000000000000000000000000000000000000000000000000602082015250565b7f206973206d697373696e6720726f6c6520000000000000000000000000000000600082015250565b7f416363657373436f6e74726f6c3a2063616e206f6e6c792072656e6f756e636560008201527f20726f6c657320666f722073656c660000000000000000000000000000000000602082015250565b7f52652d73656c6c696e67207072696365206973206d6f7265207468616e20313160008201527f3025000000000000000000000000000000000000000000000000000000000000602082015250565b61528581614938565b811461529057600080fd5b50565b61529c8161494a565b81146152a757600080fd5b50565b6152b381614956565b81146152be57600080fd5b50565b6152ca81614960565b81146152d557600080fd5b50565b6152e1816149ac565b81146152ec57600080fd5b5056fea26469706673582212204328991fdd09528cfd82532ceaec6cd4caa018df3e8329f6219c9e93355e3a2764736f6c6343000803003360806040523480156200001157600080fd5b50604051620022c7380380620022c7833981810160405281019062000037919062000215565b816000806101000a81548173ffffffffffffffffffffffffffffffffffffffff021916908373ffffffffffffffffffffffffffffffffffffffff16021790555080600160006101000a81548173ffffffffffffffffffffffffffffffffffffffff021916908373ffffffffffffffffffffffffffffffffffffffff160217905550600160009054906101000a900473ffffffffffffffffffffffffffffffffffffffff1673ffffffffffffffffffffffffffffffffffffffff16630b7055786040518163ffffffff1660e01b815260040160206040518083038186803b1580156200012157600080fd5b505afa15801562000136573d6000803e3d6000fd5b505050506040513d601f19601f820116820180604052508101906200015c9190620001e9565b600260006101000a81548173ffffffffffffffffffffffffffffffffffffffff021916908373ffffffffffffffffffffffffffffffffffffffff160217905550505062000300565b600081519050620001b581620002b2565b92915050565b600081519050620001cc81620002cc565b92915050565b600081519050620001e381620002e6565b92915050565b600060208284031215620001fc57600080fd5b60006200020c84828501620001a4565b91505092915050565b600080604083850312156200022957600080fd5b60006200023985828601620001bb565b92505060206200024c85828601620001d2565b9150509250929050565b6000620002638262000292565b9050919050565b6000620002778262000256565b9050919050565b60006200028b8262000256565b9050919050565b600073ffffffffffffffffffffffffffffffffffffffff82169050919050565b620002bd8162000256565b8114620002c957600080fd5b50565b620002d7816200026a565b8114620002e357600080fd5b50565b620002f1816200027e565b8114620002fd57600080fd5b50565b611fb780620003106000396000f3fe608060405234801561001057600080fd5b50600436106100625760003560e01c806321846c76146100675780632eeac4c3146100715780638b5b9ccc1461008d578063d014c01f146100ab578063f206c7aa146100c7578063f71d96cb146100d1575b600080fd5b61006f610101565b005b61008b60048036038101906100869190611763565b610547565b005b610095610aa1565b6040516100a291906119c4565b60405180910390f35b6100c560048036038101906100c0919061173a565b610b2f565b005b6100cf61111d565b005b6100eb60048036038101906100e69190611763565b611535565b6040516100f89190611949565b60405180910390f35b60003390506002600160009054906101000a900473ffffffffffffffffffffffffffffffffffffffff1673ffffffffffffffffffffffffffffffffffffffff1663b632c9e4836040518263ffffffff1660e01b81526004016101639190611949565b60006040518083038186803b15801561017b57600080fd5b505afa15801561018f573d6000803e3d6000fd5b505050506040513d6000823e3d601f19601f820116820180604052508101906101b891906116d0565b51106101f9576040517f08c379a00000000000000000000000000000000000000000000000000000000081526004016101f0906119e6565b60405180910390fd5b60008054906101000a900473ffffffffffffffffffffffffffffffffffffffff1673ffffffffffffffffffffffffffffffffffffffff166323b872dd8230600160009054906101000a900473ffffffffffffffffffffffffffffffffffffffff1673ffffffffffffffffffffffffffffffffffffffff166387bb7ae06040518163ffffffff1660e01b815260040160206040518083038186803b15801561029f57600080fd5b505afa1580156102b3573d6000803e3d6000fd5b505050506040513d601f19601f820116820180604052508101906102d7919061178c565b6040518463ffffffff1660e01b81526004016102f593929190611964565b602060405180830381600087803b15801561030f57600080fd5b505af1158015610323573d6000803e3d6000fd5b505050506040513d601f19601f820116820180604052508101906103479190611711565b5060008054906101000a900473ffffffffffffffffffffffffffffffffffffffff1673ffffffffffffffffffffffffffffffffffffffff1663a9059cbb600260009054906101000a900473ffffffffffffffffffffffffffffffffffffffff16600160009054906101000a900473ffffffffffffffffffffffffffffffffffffffff1673ffffffffffffffffffffffffffffffffffffffff166387bb7ae06040518163ffffffff1660e01b815260040160206040518083038186803b15801561040f57600080fd5b505afa158015610423573d6000803e3d6000fd5b505050506040513d601f19601f82011682018060405250810190610447919061178c565b6040518363ffffffff1660e01b815260040161046492919061199b565b602060405180830381600087803b15801561047e57600080fd5b505af1158015610492573d6000803e3d6000fd5b505050506040513d601f19601f820116820180604052508101906104b69190611711565b50600160009054906101000a900473ffffffffffffffffffffffffffffffffffffffff1673ffffffffffffffffffffffffffffffffffffffff16636afadefb826040518263ffffffff1660e01b81526004016105129190611949565b600060405180830381600087803b15801561052c57600080fd5b505af1158015610540573d6000803e3d6000fd5b5050505050565b6000600160009054906101000a900473ffffffffffffffffffffffffffffffffffffffff1673ffffffffffffffffffffffffffffffffffffffff16636352211e836040518263ffffffff1660e01b81526004016105a49190611a66565b60206040518083038186803b1580156105bc57600080fd5b505afa1580156105d0573d6000803e3d6000fd5b505050506040513d601f19601f820116820180604052508101906105f491906116a7565b905060003390506000600160009054906101000a900473ffffffffffffffffffffffffffffffffffffffff1673ffffffffffffffffffffffffffffffffffffffff1663569e35db856040518263ffffffff1660e01b81526004016106589190611a66565b60206040518083038186803b15801561067057600080fd5b505afa158015610684573d6000803e3d6000fd5b505050506040513d601f19601f820116820180604052508101906106a8919061178c565b905060006064600a836106bb9190611baa565b6106c59190611b79565b905060008054906101000a900473ffffffffffffffffffffffffffffffffffffffff1673ffffffffffffffffffffffffffffffffffffffff166323b872dd843084866107119190611c04565b6040518463ffffffff1660e01b815260040161072f93929190611964565b602060405180830381600087803b15801561074957600080fd5b505af115801561075d573d6000803e3d6000fd5b505050506040513d601f19601f820116820180604052508101906107819190611711565b5060008054906101000a900473ffffffffffffffffffffffffffffffffffffffff1673ffffffffffffffffffffffffffffffffffffffff1663a9059cbb8583856107cb9190611c04565b6040518363ffffffff1660e01b81526004016107e892919061199b565b602060405180830381600087803b15801561080257600080fd5b505af1158015610816573d6000803e3d6000fd5b505050506040513d601f19601f8201168201806040525081019061083a9190611711565b5060008054906101000a900473ffffffffffffffffffffffffffffffffffffffff1673ffffffffffffffffffffffffffffffffffffffff166323b872dd8430846040518463ffffffff1660e01b815260040161089893929190611964565b602060405180830381600087803b1580156108b257600080fd5b505af11580156108c6573d6000803e3d6000fd5b505050506040513d601f19601f820116820180604052508101906108ea9190611711565b5060008054906101000a900473ffffffffffffffffffffffffffffffffffffffff1673ffffffffffffffffffffffffffffffffffffffff1663a9059cbb600260009054906101000a900473ffffffffffffffffffffffffffffffffffffffff16836040518363ffffffff1660e01b815260040161096892919061199b565b602060405180830381600087803b15801561098257600080fd5b505af1158015610996573d6000803e3d6000fd5b505050506040513d601f19601f820116820180604052508101906109ba9190611711565b50600160009054906101000a900473ffffffffffffffffffffffffffffffffffffffff1673ffffffffffffffffffffffffffffffffffffffff1663c83b459084876040518363ffffffff1660e01b8152600401610a1892919061199b565b600060405180830381600087803b158015610a3257600080fd5b505af1158015610a46573d6000803e3d6000fd5b505050508273ffffffffffffffffffffffffffffffffffffffff167f22e3ae3a20c49dce14046235895c7a3ffc0a6a5f3577c370177ad45fa619485d8587604051610a9292919061199b565b60405180910390a25050505050565b60606003805480602002602001604051908101604052809291908181526020018280548015610b2557602002820191906000526020600020905b8160009054906101000a900473ffffffffffffffffffffffffffffffffffffffff1673ffffffffffffffffffffffffffffffffffffffff1681526020019060010190808311610adb575b5050505050905090565b6000339050600160009054906101000a900473ffffffffffffffffffffffffffffffffffffffff1673ffffffffffffffffffffffffffffffffffffffff16630b7055786040518163ffffffff1660e01b815260040160206040518083038186803b158015610b9c57600080fd5b505afa158015610bb0573d6000803e3d6000fd5b505050506040513d601f19601f82011682018060405250810190610bd491906116a7565b73ffffffffffffffffffffffffffffffffffffffff168273ffffffffffffffffffffffffffffffffffffffff16630b7055786040518163ffffffff1660e01b815260040160206040518083038186803b158015610c3057600080fd5b505afa158015610c44573d6000803e3d6000fd5b505050506040513d601f19601f82011682018060405250810190610c6891906116a7565b73ffffffffffffffffffffffffffffffffffffffff1614610cbe576040517f08c379a0000000000000000000000000000000000000000000000000000000008152600401610cb590611a06565b60405180910390fd5b8173ffffffffffffffffffffffffffffffffffffffff1663d45be3ae826040518263ffffffff1660e01b8152600401610cf79190611949565b60206040518083038186803b158015610d0f57600080fd5b505afa158015610d23573d6000803e3d6000fd5b505050506040513d601f19601f82011682018060405250810190610d479190611711565b610d86576040517f08c379a0000000000000000000000000000000000000000000000000000000008152600401610d7d90611a46565b60405180910390fd5b6002600160009054906101000a900473ffffffffffffffffffffffffffffffffffffffff1673ffffffffffffffffffffffffffffffffffffffff1663b632c9e4836040518263ffffffff1660e01b8152600401610de39190611949565b60006040518083038186803b158015610dfb57600080fd5b505afa158015610e0f573d6000803e3d6000fd5b505050506040513d6000823e3d601f19601f82011682018060405250810190610e3891906116d0565b5110610e79576040517f08c379a0000000000000000000000000000000000000000000000000000000008152600401610e7090611a26565b60405180910390fd5b60006064600a600160009054906101000a900473ffffffffffffffffffffffffffffffffffffffff1673ffffffffffffffffffffffffffffffffffffffff166387bb7ae06040518163ffffffff1660e01b815260040160206040518083038186803b158015610ee757600080fd5b505afa158015610efb573d6000803e3d6000fd5b505050506040513d601f19601f82011682018060405250810190610f1f919061178c565b610f299190611baa565b610f339190611b79565b905060008054906101000a900473ffffffffffffffffffffffffffffffffffffffff1673ffffffffffffffffffffffffffffffffffffffff166323b872dd8330846040518463ffffffff1660e01b8152600401610f9293929190611964565b602060405180830381600087803b158015610fac57600080fd5b505af1158015610fc0573d6000803e3d6000fd5b505050506040513d601f19601f82011682018060405250810190610fe49190611711565b5060008054906101000a900473ffffffffffffffffffffffffffffffffffffffff1673ffffffffffffffffffffffffffffffffffffffff1663a9059cbb600260009054906101000a900473ffffffffffffffffffffffffffffffffffffffff16836040518363ffffffff1660e01b815260040161106292919061199b565b602060405180830381600087803b15801561107c57600080fd5b505af1158015611090573d6000803e3d6000fd5b505050506040513d601f19601f820116820180604052508101906110b49190611711565b506003829080600181540180825580915050600190039060005260206000200160009091909190916101000a81548173ffffffffffffffffffffffffffffffffffffffff021916908373ffffffffffffffffffffffffffffffffffffffff160217905550505050565b6000600160009054906101000a900473ffffffffffffffffffffffffffffffffffffffff1673ffffffffffffffffffffffffffffffffffffffff16630cdf1df76040518163ffffffff1660e01b815260040160206040518083038186803b15801561118757600080fd5b505afa15801561119b573d6000803e3d6000fd5b505050506040513d601f19601f820116820180604052508101906111bf919061178c565b905060005b818110156115315760006003805490506111dc611574565b6111e69190611d46565b905060006003600081548110611225577f4e487b7100000000000000000000000000000000000000000000000000000000600052603260045260246000fd5b9060005260206000200160009054906101000a900473ffffffffffffffffffffffffffffffffffffffff16905060006064605a600160009054906101000a900473ffffffffffffffffffffffffffffffffffffffff1673ffffffffffffffffffffffffffffffffffffffff166387bb7ae06040518163ffffffff1660e01b815260040160206040518083038186803b1580156112c057600080fd5b505afa1580156112d4573d6000803e3d6000fd5b505050506040513d601f19601f820116820180604052508101906112f8919061178c565b6113029190611baa565b61130c9190611b79565b905060008054906101000a900473ffffffffffffffffffffffffffffffffffffffff1673ffffffffffffffffffffffffffffffffffffffff166323b872dd8330846040518463ffffffff1660e01b815260040161136b93929190611964565b602060405180830381600087803b15801561138557600080fd5b505af1158015611399573d6000803e3d6000fd5b505050506040513d601f19601f820116820180604052508101906113bd9190611711565b5060008054906101000a900473ffffffffffffffffffffffffffffffffffffffff1673ffffffffffffffffffffffffffffffffffffffff1663a9059cbb600260009054906101000a900473ffffffffffffffffffffffffffffffffffffffff16836040518363ffffffff1660e01b815260040161143b92919061199b565b602060405180830381600087803b15801561145557600080fd5b505af1158015611469573d6000803e3d6000fd5b505050506040513d601f19601f8201168201806040525081019061148d9190611711565b50600160009054906101000a900473ffffffffffffffffffffffffffffffffffffffff1673ffffffffffffffffffffffffffffffffffffffff166399411bee836040518263ffffffff1660e01b81526004016114e99190611949565b600060405180830381600087803b15801561150357600080fd5b505af1158015611517573d6000803e3d6000fd5b50505050505050808061152990611cfd565b9150506111c4565b5050565b6003818154811061154557600080fd5b906000526020600020016000915054906101000a900473ffffffffffffffffffffffffffffffffffffffff1681565b600042600360405160200161158a929190611a81565b6040516020818303038152906040528051906020012060001c905090565b60006115bb6115b684611ad6565b611ab1565b905080838252602082019050828560208602820111156115da57600080fd5b60005b8581101561160a57816115f08882611692565b8452602084019350602083019250506001810190506115dd565b5050509392505050565b60008151905061162381611f25565b92915050565b600082601f83011261163a57600080fd5b815161164a8482602086016115a8565b91505092915050565b60008151905061166281611f3c565b92915050565b60008135905061167781611f53565b92915050565b60008135905061168c81611f6a565b92915050565b6000815190506116a181611f6a565b92915050565b6000602082840312156116b957600080fd5b60006116c784828501611614565b91505092915050565b6000602082840312156116e257600080fd5b600082015167ffffffffffffffff8111156116fc57600080fd5b61170884828501611629565b91505092915050565b60006020828403121561172357600080fd5b600061173184828501611653565b91505092915050565b60006020828403121561174c57600080fd5b600061175a84828501611668565b91505092915050565b60006020828403121561177557600080fd5b60006117838482850161167d565b91505092915050565b60006020828403121561179e57600080fd5b60006117ac84828501611692565b91505092915050565b60006117c183836117cd565b60208301905092915050565b6117d681611c58565b82525050565b6117e581611c58565b82525050565b60006117f682611b27565b6118008185611b57565b935061180b83611b02565b8060005b8381101561183c57815161182388826117b5565b975061182e83611b3d565b92505060018101905061180f565b5085935050505092915050565b600061185482611b32565b61185e8185611b57565b935061186983611b12565b8060005b838110156118a15761187e82611e04565b61188888826117b5565b975061189383611b4a565b92505060018101905061186d565b5085935050505092915050565b60006118bb601e83611b68565b91506118c682611e35565b602082019050919050565b60006118de603183611b68565b91506118e982611e5e565b604082019050919050565b6000611901602483611b68565b915061190c82611ead565b604082019050919050565b6000611924601f83611b68565b915061192f82611efc565b602082019050919050565b61194381611ca8565b82525050565b600060208201905061195e60008301846117dc565b92915050565b600060608201905061197960008301866117dc565b61198660208301856117dc565b611993604083018461193a565b949350505050565b60006040820190506119b060008301856117dc565b6119bd602083018461193a565b9392505050565b600060208201905081810360008301526119de81846117eb565b905092915050565b600060208201905081810360008301526119ff816118ae565b9050919050565b60006020820190508181036000830152611a1f816118d1565b9050919050565b60006020820190508181036000830152611a3f816118f4565b9050919050565b60006020820190508181036000830152611a5f81611917565b9050919050565b6000602082019050611a7b600083018461193a565b92915050565b6000604082019050611a96600083018561193a565b8181036020830152611aa88184611849565b90509392505050565b6000611abb611acc565b9050611ac78282611ccc565b919050565b6000604051905090565b600067ffffffffffffffff821115611af157611af0611dd5565b5b602082029050602081019050919050565b6000819050602082019050919050565b60008190508160005260206000209050919050565b600081519050919050565b600081549050919050565b6000602082019050919050565b6000600182019050919050565b600082825260208201905092915050565b600082825260208201905092915050565b6000611b8482611ca8565b9150611b8f83611ca8565b925082611b9f57611b9e611da6565b5b828204905092915050565b6000611bb582611ca8565b9150611bc083611ca8565b9250817fffffffffffffffffffffffffffffffffffffffffffffffffffffffffffffffff0483118215151615611bf957611bf8611d77565b5b828202905092915050565b6000611c0f82611ca8565b9150611c1a83611ca8565b925082821015611c2d57611c2c611d77565b5b828203905092915050565b600073ffffffffffffffffffffffffffffffffffffffff82169050919050565b6000611c6382611c88565b9050919050565b60008115159050919050565b6000611c8182611c58565b9050919050565b600073ffffffffffffffffffffffffffffffffffffffff82169050919050565b6000819050919050565b6000611cc5611cc083611e28565b611c38565b9050919050565b611cd582611e17565b810181811067ffffffffffffffff82111715611cf457611cf3611dd5565b5b80604052505050565b6000611d0882611ca8565b91507fffffffffffffffffffffffffffffffffffffffffffffffffffffffffffffffff821415611d3b57611d3a611d77565b5b600182019050919050565b6000611d5182611ca8565b9150611d5c83611ca8565b925082611d6c57611d6b611da6565b5b828206905092915050565b7f4e487b7100000000000000000000000000000000000000000000000000000000600052601160045260246000fd5b7f4e487b7100000000000000000000000000000000000000000000000000000000600052601260045260246000fd5b7f4e487b7100000000000000000000000000000000000000000000000000000000600052604160045260246000fd5b6000611e108254611cb2565b9050919050565b6000601f19601f8301169050919050565b60008160001c9050919050565b7f43616e6e6f7420627579206d6f7265207468616e2032207469636b6574730000600082015250565b7f506c61796572206d757374206861766520706172746963697061746520696e2060008201527f61637469766974696573206265666f7265000000000000000000000000000000602082015250565b7f506c61796572206d75737420686f6c64206c657373207468616e20322074696360008201527f6b65747300000000000000000000000000000000000000000000000000000000602082015250565b7f506c61796572206d75737420686f6c64207469636b657473206265666f726500600082015250565b611f2e81611c58565b8114611f3957600080fd5b50565b611f4581611c6a565b8114611f5057600080fd5b50565b611f5c81611c76565b8114611f6757600080fd5b50565b611f7381611ca8565b8114611f7e57600080fd5b5056fea2646970667358221220301a1f286d44b6aad5f2b13c644c8e9e7c1baf5c72ca6333420dddea6a422fa964736f6c63430008030033a26469706673582212207ebcb722884bf914be6d151b5af5fc3e1f64b62ed21f29a3de511930e8b83ee064736f6c63430008030033",
  "linkReferences": {},
  "deployedLinkReferences": {}
}