{
  "_format": "hh-sol-artifact-1",
  "contractName": "TicketMarket",
  "sourceName": "contracts/TicketMarket.sol",
  "abi": [
    {
      "inputs": [
        {
          "internalType": "contract GogoToken",
          "name": "token",
          "type": "address"
        },
        {
          "internalType": "contract TicketNFT",
          "name": "festival",
          "type": "address"
        }
      ],
      "stateMutability": "nonpayable",
      "type": "constructor"
    },
    {
      "anonymous": false,
      "inputs": [
        {
          "indexed": true,
          "internalType": "address",
          "name": "buyer",
          "type": "address"
        },
        {
          "indexed": false,
          "internalType": "address",
          "name": "seller",
          "type": "address"
        },
        {
          "indexed": false,
          "internalType": "uint256",
          "name": "ticketId",
          "type": "uint256"
        }
      ],
      "name": "Purchase",
      "type": "event"
    },
    {
      "inputs": [
        {
          "internalType": "contract TicketNFT",
          "name": "oldfestival",
          "type": "address"
        }
      ],
      "name": "enter",
      "outputs": [],
      "stateMutability": "nonpayable",
      "type": "function"
    },
    {
      "inputs": [],
      "name": "getPlayers",
      "outputs": [
        {
          "internalType": "address[]",
          "name": "",
          "type": "address[]"
        }
      ],
      "stateMutability": "view",
      "type": "function"
    },
    {
      "inputs": [],
      "name": "lotteryTicket",
      "outputs": [],
      "stateMutability": "nonpayable",
      "type": "function"
    },
    {
      "inputs": [
        {
          "internalType": "uint256",
          "name": "",
          "type": "uint256"
        }
      ],
      "name": "players",
      "outputs": [
        {
          "internalType": "address",
          "name": "",
          "type": "address"
        }
      ],
      "stateMutability": "view",
      "type": "function"
    },
    {
      "inputs": [],
      "name": "purchaseTicket",
      "outputs": [],
      "stateMutability": "nonpayable",
      "type": "function"
    },
    {
      "inputs": [
        {
          "internalType": "uint256",
          "name": "ticketId",
          "type": "uint256"
        }
      ],
      "name": "secondaryPurchase",
      "outputs": [],
      "stateMutability": "nonpayable",
      "type": "function"
    }
  ],
  "bytecode": "0x60806040523480156200001157600080fd5b50604051620022c7380380620022c7833981810160405281019062000037919062000215565b816000806101000a81548173ffffffffffffffffffffffffffffffffffffffff021916908373ffffffffffffffffffffffffffffffffffffffff16021790555080600160006101000a81548173ffffffffffffffffffffffffffffffffffffffff021916908373ffffffffffffffffffffffffffffffffffffffff160217905550600160009054906101000a900473ffffffffffffffffffffffffffffffffffffffff1673ffffffffffffffffffffffffffffffffffffffff16630b7055786040518163ffffffff1660e01b815260040160206040518083038186803b1580156200012157600080fd5b505afa15801562000136573d6000803e3d6000fd5b505050506040513d601f19601f820116820180604052508101906200015c9190620001e9565b600260006101000a81548173ffffffffffffffffffffffffffffffffffffffff021916908373ffffffffffffffffffffffffffffffffffffffff160217905550505062000300565b600081519050620001b581620002b2565b92915050565b600081519050620001cc81620002cc565b92915050565b600081519050620001e381620002e6565b92915050565b600060208284031215620001fc57600080fd5b60006200020c84828501620001a4565b91505092915050565b600080604083850312156200022957600080fd5b60006200023985828601620001bb565b92505060206200024c85828601620001d2565b9150509250929050565b6000620002638262000292565b9050919050565b6000620002778262000256565b9050919050565b60006200028b8262000256565b9050919050565b600073ffffffffffffffffffffffffffffffffffffffff82169050919050565b620002bd8162000256565b8114620002c957600080fd5b50565b620002d7816200026a565b8114620002e357600080fd5b50565b620002f1816200027e565b8114620002fd57600080fd5b50565b611fb780620003106000396000f3fe608060405234801561001057600080fd5b50600436106100625760003560e01c806321846c76146100675780632eeac4c3146100715780638b5b9ccc1461008d578063d014c01f146100ab578063f206c7aa146100c7578063f71d96cb146100d1575b600080fd5b61006f610101565b005b61008b60048036038101906100869190611763565b610547565b005b610095610aa1565b6040516100a291906119c4565b60405180910390f35b6100c560048036038101906100c0919061173a565b610b2f565b005b6100cf61111d565b005b6100eb60048036038101906100e69190611763565b611535565b6040516100f89190611949565b60405180910390f35b60003390506002600160009054906101000a900473ffffffffffffffffffffffffffffffffffffffff1673ffffffffffffffffffffffffffffffffffffffff1663b632c9e4836040518263ffffffff1660e01b81526004016101639190611949565b60006040518083038186803b15801561017b57600080fd5b505afa15801561018f573d6000803e3d6000fd5b505050506040513d6000823e3d601f19601f820116820180604052508101906101b891906116d0565b51106101f9576040517f08c379a00000000000000000000000000000000000000000000000000000000081526004016101f0906119e6565b60405180910390fd5b60008054906101000a900473ffffffffffffffffffffffffffffffffffffffff1673ffffffffffffffffffffffffffffffffffffffff166323b872dd8230600160009054906101000a900473ffffffffffffffffffffffffffffffffffffffff1673ffffffffffffffffffffffffffffffffffffffff166387bb7ae06040518163ffffffff1660e01b815260040160206040518083038186803b15801561029f57600080fd5b505afa1580156102b3573d6000803e3d6000fd5b505050506040513d601f19601f820116820180604052508101906102d7919061178c565b6040518463ffffffff1660e01b81526004016102f593929190611964565b602060405180830381600087803b15801561030f57600080fd5b505af1158015610323573d6000803e3d6000fd5b505050506040513d601f19601f820116820180604052508101906103479190611711565b5060008054906101000a900473ffffffffffffffffffffffffffffffffffffffff1673ffffffffffffffffffffffffffffffffffffffff1663a9059cbb600260009054906101000a900473ffffffffffffffffffffffffffffffffffffffff16600160009054906101000a900473ffffffffffffffffffffffffffffffffffffffff1673ffffffffffffffffffffffffffffffffffffffff166387bb7ae06040518163ffffffff1660e01b815260040160206040518083038186803b15801561040f57600080fd5b505afa158015610423573d6000803e3d6000fd5b505050506040513d601f19601f82011682018060405250810190610447919061178c565b6040518363ffffffff1660e01b815260040161046492919061199b565b602060405180830381600087803b15801561047e57600080fd5b505af1158015610492573d6000803e3d6000fd5b505050506040513d601f19601f820116820180604052508101906104b69190611711565b50600160009054906101000a900473ffffffffffffffffffffffffffffffffffffffff1673ffffffffffffffffffffffffffffffffffffffff16636afadefb826040518263ffffffff1660e01b81526004016105129190611949565b600060405180830381600087803b15801561052c57600080fd5b505af1158015610540573d6000803e3d6000fd5b5050505050565b6000600160009054906101000a900473ffffffffffffffffffffffffffffffffffffffff1673ffffffffffffffffffffffffffffffffffffffff16636352211e836040518263ffffffff1660e01b81526004016105a49190611a66565b60206040518083038186803b1580156105bc57600080fd5b505afa1580156105d0573d6000803e3d6000fd5b505050506040513d601f19601f820116820180604052508101906105f491906116a7565b905060003390506000600160009054906101000a900473ffffffffffffffffffffffffffffffffffffffff1673ffffffffffffffffffffffffffffffffffffffff1663569e35db856040518263ffffffff1660e01b81526004016106589190611a66565b60206040518083038186803b15801561067057600080fd5b505afa158015610684573d6000803e3d6000fd5b505050506040513d601f19601f820116820180604052508101906106a8919061178c565b905060006064600a836106bb9190611baa565b6106c59190611b79565b905060008054906101000a900473ffffffffffffffffffffffffffffffffffffffff1673ffffffffffffffffffffffffffffffffffffffff166323b872dd843084866107119190611c04565b6040518463ffffffff1660e01b815260040161072f93929190611964565b602060405180830381600087803b15801561074957600080fd5b505af115801561075d573d6000803e3d6000fd5b505050506040513d601f19601f820116820180604052508101906107819190611711565b5060008054906101000a900473ffffffffffffffffffffffffffffffffffffffff1673ffffffffffffffffffffffffffffffffffffffff1663a9059cbb8583856107cb9190611c04565b6040518363ffffffff1660e01b81526004016107e892919061199b565b602060405180830381600087803b15801561080257600080fd5b505af1158015610816573d6000803e3d6000fd5b505050506040513d601f19601f8201168201806040525081019061083a9190611711565b5060008054906101000a900473ffffffffffffffffffffffffffffffffffffffff1673ffffffffffffffffffffffffffffffffffffffff166323b872dd8430846040518463ffffffff1660e01b815260040161089893929190611964565b602060405180830381600087803b1580156108b257600080fd5b505af11580156108c6573d6000803e3d6000fd5b505050506040513d601f19601f820116820180604052508101906108ea9190611711565b5060008054906101000a900473ffffffffffffffffffffffffffffffffffffffff1673ffffffffffffffffffffffffffffffffffffffff1663a9059cbb600260009054906101000a900473ffffffffffffffffffffffffffffffffffffffff16836040518363ffffffff1660e01b815260040161096892919061199b565b602060405180830381600087803b15801561098257600080fd5b505af1158015610996573d6000803e3d6000fd5b505050506040513d601f19601f820116820180604052508101906109ba9190611711565b50600160009054906101000a900473ffffffffffffffffffffffffffffffffffffffff1673ffffffffffffffffffffffffffffffffffffffff1663c83b459084876040518363ffffffff1660e01b8152600401610a1892919061199b565b600060405180830381600087803b158015610a3257600080fd5b505af1158015610a46573d6000803e3d6000fd5b505050508273ffffffffffffffffffffffffffffffffffffffff167f22e3ae3a20c49dce14046235895c7a3ffc0a6a5f3577c370177ad45fa619485d8587604051610a9292919061199b565b60405180910390a25050505050565b60606003805480602002602001604051908101604052809291908181526020018280548015610b2557602002820191906000526020600020905b8160009054906101000a900473ffffffffffffffffffffffffffffffffffffffff1673ffffffffffffffffffffffffffffffffffffffff1681526020019060010190808311610adb575b5050505050905090565b6000339050600160009054906101000a900473ffffffffffffffffffffffffffffffffffffffff1673ffffffffffffffffffffffffffffffffffffffff16630b7055786040518163ffffffff1660e01b815260040160206040518083038186803b158015610b9c57600080fd5b505afa158015610bb0573d6000803e3d6000fd5b505050506040513d601f19601f82011682018060405250810190610bd491906116a7565b73ffffffffffffffffffffffffffffffffffffffff168273ffffffffffffffffffffffffffffffffffffffff16630b7055786040518163ffffffff1660e01b815260040160206040518083038186803b158015610c3057600080fd5b505afa158015610c44573d6000803e3d6000fd5b505050506040513d601f19601f82011682018060405250810190610c6891906116a7565b73ffffffffffffffffffffffffffffffffffffffff1614610cbe576040517f08c379a0000000000000000000000000000000000000000000000000000000008152600401610cb590611a06565b60405180910390fd5b8173ffffffffffffffffffffffffffffffffffffffff1663d45be3ae826040518263ffffffff1660e01b8152600401610cf79190611949565b60206040518083038186803b158015610d0f57600080fd5b505afa158015610d23573d6000803e3d6000fd5b505050506040513d601f19601f82011682018060405250810190610d479190611711565b610d86576040517f08c379a0000000000000000000000000000000000000000000000000000000008152600401610d7d90611a46565b60405180910390fd5b6002600160009054906101000a900473ffffffffffffffffffffffffffffffffffffffff1673ffffffffffffffffffffffffffffffffffffffff1663b632c9e4836040518263ffffffff1660e01b8152600401610de39190611949565b60006040518083038186803b158015610dfb57600080fd5b505afa158015610e0f573d6000803e3d6000fd5b505050506040513d6000823e3d601f19601f82011682018060405250810190610e3891906116d0565b5110610e79576040517f08c379a0000000000000000000000000000000000000000000000000000000008152600401610e7090611a26565b60405180910390fd5b60006064600a600160009054906101000a900473ffffffffffffffffffffffffffffffffffffffff1673ffffffffffffffffffffffffffffffffffffffff166387bb7ae06040518163ffffffff1660e01b815260040160206040518083038186803b158015610ee757600080fd5b505afa158015610efb573d6000803e3d6000fd5b505050506040513d601f19601f82011682018060405250810190610f1f919061178c565b610f299190611baa565b610f339190611b79565b905060008054906101000a900473ffffffffffffffffffffffffffffffffffffffff1673ffffffffffffffffffffffffffffffffffffffff166323b872dd8330846040518463ffffffff1660e01b8152600401610f9293929190611964565b602060405180830381600087803b158015610fac57600080fd5b505af1158015610fc0573d6000803e3d6000fd5b505050506040513d601f19601f82011682018060405250810190610fe49190611711565b5060008054906101000a900473ffffffffffffffffffffffffffffffffffffffff1673ffffffffffffffffffffffffffffffffffffffff1663a9059cbb600260009054906101000a900473ffffffffffffffffffffffffffffffffffffffff16836040518363ffffffff1660e01b815260040161106292919061199b565b602060405180830381600087803b15801561107c57600080fd5b505af1158015611090573d6000803e3d6000fd5b505050506040513d601f19601f820116820180604052508101906110b49190611711565b506003829080600181540180825580915050600190039060005260206000200160009091909190916101000a81548173ffffffffffffffffffffffffffffffffffffffff021916908373ffffffffffffffffffffffffffffffffffffffff160217905550505050565b6000600160009054906101000a900473ffffffffffffffffffffffffffffffffffffffff1673ffffffffffffffffffffffffffffffffffffffff16630cdf1df76040518163ffffffff1660e01b815260040160206040518083038186803b15801561118757600080fd5b505afa15801561119b573d6000803e3d6000fd5b505050506040513d601f19601f820116820180604052508101906111bf919061178c565b905060005b818110156115315760006003805490506111dc611574565b6111e69190611d46565b905060006003600081548110611225577f4e487b7100000000000000000000000000000000000000000000000000000000600052603260045260246000fd5b9060005260206000200160009054906101000a900473ffffffffffffffffffffffffffffffffffffffff16905060006064605a600160009054906101000a900473ffffffffffffffffffffffffffffffffffffffff1673ffffffffffffffffffffffffffffffffffffffff166387bb7ae06040518163ffffffff1660e01b815260040160206040518083038186803b1580156112c057600080fd5b505afa1580156112d4573d6000803e3d6000fd5b505050506040513d601f19601f820116820180604052508101906112f8919061178c565b6113029190611baa565b61130c9190611b79565b905060008054906101000a900473ffffffffffffffffffffffffffffffffffffffff1673ffffffffffffffffffffffffffffffffffffffff166323b872dd8330846040518463ffffffff1660e01b815260040161136b93929190611964565b602060405180830381600087803b15801561138557600080fd5b505af1158015611399573d6000803e3d6000fd5b505050506040513d601f19601f820116820180604052508101906113bd9190611711565b5060008054906101000a900473ffffffffffffffffffffffffffffffffffffffff1673ffffffffffffffffffffffffffffffffffffffff1663a9059cbb600260009054906101000a900473ffffffffffffffffffffffffffffffffffffffff16836040518363ffffffff1660e01b815260040161143b92919061199b565b602060405180830381600087803b15801561145557600080fd5b505af1158015611469573d6000803e3d6000fd5b505050506040513d601f19601f8201168201806040525081019061148d9190611711565b50600160009054906101000a900473ffffffffffffffffffffffffffffffffffffffff1673ffffffffffffffffffffffffffffffffffffffff166399411bee836040518263ffffffff1660e01b81526004016114e99190611949565b600060405180830381600087803b15801561150357600080fd5b505af1158015611517573d6000803e3d6000fd5b50505050505050808061152990611cfd565b9150506111c4565b5050565b6003818154811061154557600080fd5b906000526020600020016000915054906101000a900473ffffffffffffffffffffffffffffffffffffffff1681565b600042600360405160200161158a929190611a81565b6040516020818303038152906040528051906020012060001c905090565b60006115bb6115b684611ad6565b611ab1565b905080838252602082019050828560208602820111156115da57600080fd5b60005b8581101561160a57816115f08882611692565b8452602084019350602083019250506001810190506115dd565b5050509392505050565b60008151905061162381611f25565b92915050565b600082601f83011261163a57600080fd5b815161164a8482602086016115a8565b91505092915050565b60008151905061166281611f3c565b92915050565b60008135905061167781611f53565b92915050565b60008135905061168c81611f6a565b92915050565b6000815190506116a181611f6a565b92915050565b6000602082840312156116b957600080fd5b60006116c784828501611614565b91505092915050565b6000602082840312156116e257600080fd5b600082015167ffffffffffffffff8111156116fc57600080fd5b61170884828501611629565b91505092915050565b60006020828403121561172357600080fd5b600061173184828501611653565b91505092915050565b60006020828403121561174c57600080fd5b600061175a84828501611668565b91505092915050565b60006020828403121561177557600080fd5b60006117838482850161167d565b91505092915050565b60006020828403121561179e57600080fd5b60006117ac84828501611692565b91505092915050565b60006117c183836117cd565b60208301905092915050565b6117d681611c58565b82525050565b6117e581611c58565b82525050565b60006117f682611b27565b6118008185611b57565b935061180b83611b02565b8060005b8381101561183c57815161182388826117b5565b975061182e83611b3d565b92505060018101905061180f565b5085935050505092915050565b600061185482611b32565b61185e8185611b57565b935061186983611b12565b8060005b838110156118a15761187e82611e04565b61188888826117b5565b975061189383611b4a565b92505060018101905061186d565b5085935050505092915050565b60006118bb601e83611b68565b91506118c682611e35565b602082019050919050565b60006118de603183611b68565b91506118e982611e5e565b604082019050919050565b6000611901602483611b68565b915061190c82611ead565b604082019050919050565b6000611924601f83611b68565b915061192f82611efc565b602082019050919050565b61194381611ca8565b82525050565b600060208201905061195e60008301846117dc565b92915050565b600060608201905061197960008301866117dc565b61198660208301856117dc565b611993604083018461193a565b949350505050565b60006040820190506119b060008301856117dc565b6119bd602083018461193a565b9392505050565b600060208201905081810360008301526119de81846117eb565b905092915050565b600060208201905081810360008301526119ff816118ae565b9050919050565b60006020820190508181036000830152611a1f816118d1565b9050919050565b60006020820190508181036000830152611a3f816118f4565b9050919050565b60006020820190508181036000830152611a5f81611917565b9050919050565b6000602082019050611a7b600083018461193a565b92915050565b6000604082019050611a96600083018561193a565b8181036020830152611aa88184611849565b90509392505050565b6000611abb611acc565b9050611ac78282611ccc565b919050565b6000604051905090565b600067ffffffffffffffff821115611af157611af0611dd5565b5b602082029050602081019050919050565b6000819050602082019050919050565b60008190508160005260206000209050919050565b600081519050919050565b600081549050919050565b6000602082019050919050565b6000600182019050919050565b600082825260208201905092915050565b600082825260208201905092915050565b6000611b8482611ca8565b9150611b8f83611ca8565b925082611b9f57611b9e611da6565b5b828204905092915050565b6000611bb582611ca8565b9150611bc083611ca8565b9250817fffffffffffffffffffffffffffffffffffffffffffffffffffffffffffffffff0483118215151615611bf957611bf8611d77565b5b828202905092915050565b6000611c0f82611ca8565b9150611c1a83611ca8565b925082821015611c2d57611c2c611d77565b5b828203905092915050565b600073ffffffffffffffffffffffffffffffffffffffff82169050919050565b6000611c6382611c88565b9050919050565b60008115159050919050565b6000611c8182611c58565b9050919050565b600073ffffffffffffffffffffffffffffffffffffffff82169050919050565b6000819050919050565b6000611cc5611cc083611e28565b611c38565b9050919050565b611cd582611e17565b810181811067ffffffffffffffff82111715611cf457611cf3611dd5565b5b80604052505050565b6000611d0882611ca8565b91507fffffffffffffffffffffffffffffffffffffffffffffffffffffffffffffffff821415611d3b57611d3a611d77565b5b600182019050919050565b6000611d5182611ca8565b9150611d5c83611ca8565b925082611d6c57611d6b611da6565b5b828206905092915050565b7f4e487b7100000000000000000000000000000000000000000000000000000000600052601160045260246000fd5b7f4e487b7100000000000000000000000000000000000000000000000000000000600052601260045260246000fd5b7f4e487b7100000000000000000000000000000000000000000000000000000000600052604160045260246000fd5b6000611e108254611cb2565b9050919050565b6000601f19601f8301169050919050565b60008160001c9050919050565b7f43616e6e6f7420627579206d6f7265207468616e2032207469636b6574730000600082015250565b7f506c61796572206d757374206861766520706172746963697061746520696e2060008201527f61637469766974696573206265666f7265000000000000000000000000000000602082015250565b7f506c61796572206d75737420686f6c64206c657373207468616e20322074696360008201527f6b65747300000000000000000000000000000000000000000000000000000000602082015250565b7f506c61796572206d75737420686f6c64207469636b657473206265666f726500600082015250565b611f2e81611c58565b8114611f3957600080fd5b50565b611f4581611c6a565b8114611f5057600080fd5b50565b611f5c81611c76565b8114611f6757600080fd5b50565b611f7381611ca8565b8114611f7e57600080fd5b5056fea2646970667358221220301a1f286d44b6aad5f2b13c644c8e9e7c1baf5c72ca6333420dddea6a422fa964736f6c63430008030033",
  "linkReferences": {},
  "deployedLinkReferences": {}
}