{
  "_format": "hh-sol-artifact-1",
  "contractName": "TokenReceiver",
  "sourceName": "contracts/TokenReceiver.sol",
  "abi": [
    {
      "inputs": [
        {
          "internalType": "contract IERC20",
          "name": "token",
          "type": "address"
        }
      ],
      "stateMutability": "nonpayable",
      "type": "constructor"
    },
    {
      "anonymous": false,
      "inputs": [
        {
          "indexed": false,
          "internalType": "address",
          "name": "from",
          "type": "address"
        }
      ],
      "name": "DoneStuff",
      "type": "event"
    },
    {
      "inputs": [],
      "name": "doStuff",
      "outputs": [],
      "stateMutability": "nonpayable",
      "type": "function"
    }
  ],
  "bytecode": "0x608060405234801561001057600080fd5b506040516103a03803806103a08339818101604052810190610032919061008d565b806000806101000a81548173ffffffffffffffffffffffffffffffffffffffff021916908373ffffffffffffffffffffffffffffffffffffffff16021790555050610111565b600081519050610087816100fa565b92915050565b60006020828403121561009f57600080fd5b60006100ad84828501610078565b91505092915050565b60006100c1826100da565b9050919050565b60006100d3826100b6565b9050919050565b600073ffffffffffffffffffffffffffffffffffffffff82169050919050565b610103816100c8565b811461010e57600080fd5b50565b610280806101206000396000f3fe608060405234801561001057600080fd5b506004361061002b5760003560e01c8063874f33a114610030575b600080fd5b61003861003a565b005b600033905060008054906101000a900473ffffffffffffffffffffffffffffffffffffffff1673ffffffffffffffffffffffffffffffffffffffff166323b872dd82306103e86040518463ffffffff1660e01b815260040161009e939291906101a2565b602060405180830381600087803b1580156100b857600080fd5b505af11580156100cc573d6000803e3d6000fd5b505050506040513d601f19601f820116820180604052508101906100f09190610140565b507ffb55d69a924eb175f134fb8cbb875beb7c22325179dac4eee4af2bd5de6a2ec3816040516101209190610187565b60405180910390a150565b60008151905061013a81610233565b92915050565b60006020828403121561015257600080fd5b60006101608482850161012b565b91505092915050565b610172816101d9565b82525050565b61018181610221565b82525050565b600060208201905061019c6000830184610169565b92915050565b60006060820190506101b76000830186610169565b6101c46020830185610169565b6101d16040830184610178565b949350505050565b60006101e4826101f7565b9050919050565b60008115159050919050565b600073ffffffffffffffffffffffffffffffffffffffff82169050919050565b6000819050919050565b600061022c82610217565b9050919050565b61023c816101eb565b811461024757600080fd5b5056fea2646970667358221220a4ed91facf051935aed44201c51bd4fb36cb8d4285c72bfe59942631d1fdeb3464736f6c63430008030033",
  "linkReferences": {},
  "deployedLinkReferences": {}
}